:100000000C94CA020C9411030C9411030C94110368
:100010000C9411030C9411030C9411030C94110310
:100020000C9411030C9411030C94B12E0C94842F96
:100030000C94BE290C9411030C9411030C9411031D
:100040000C9411030C9411030C9411030C941103E0
:100050000C9411030C94502A0C9411030C9411036A
:100060000C9411030C9411030C9411030C941103C0
:100070000C9411030C9411030C9411030C941103B0
:100080000C9411030C9411030C9411030C941103A0
:100090000C9411030C9411030C9411030C94110390
:1000A0000C9411030C9411030C9411032B001400F5
:1000B0001A000800150017001C0018000C001200A0
:1000C00013002A00290004001600070009000A0096
:1000D0000B000D000E000F0033003400E1001D0086
:1000E0001B00060019000500110010003600370043
:1000F00038002800C35CE000E200E30011502C004F
:10010000000002545000510052004F0034003600ED
:10011000370013001C005200510009000A000600BD
:1001200015000F0004001200080018000C00500019
:100130004F0007000B0017001100160033001400D9
:100140000D000E001B0000000000050010001A004A
:1001500019001D000000000000002B442942055436
:1001600000002C002A0000000000000035003600CE
:100170003700650000000000000057002400250043
:1001800026002E005061516452684F62000000004A
:100190000000270021002200230025022F0030004C
:1001A000310013500000000000002D001E001F0051
:1001B00020003800000000000000010001002800BD
:1001C000000001004C0000000000000000000000E2
:1001D000ED0000000000000000000000F100F2004F
:1001E0004A004D000000EF00EE00F00000000000AB
:1001F0000000F100FF00FE00FD004B0000000000C9
:1002000000000100000000000000FC00FA00F900FE
:10021000FC004E0000000000000001000100115031
:10022000000001002A000000000000001050AD0096
:10023000A8007D000000000000007E0000007C009F
:1002400000000000E000E200E300E1007A000000AE
:100250000000A900E500E700E600E40016500554A0
:10026000125013507B0000000000AA005000510003
:1002700052004F000000000000000100010011507A
:1002800000000100010000000000000034023602FE
:10029000370225020000000000002E023802220270
:1002A00024022E0035022D0023023400000000003D
:1002B000000038001E021F022002210235002D021C
:1002C0003100010000000000000033022F00300068
:1002D0002F023002000000000000145012500100F4
:1002E000000026022702000000000000005C015C04
:1002F000C35C005DFF5C0000000000003E003F00AA
:1003000040004100C45CC65CC85CCA5CCC5C0000B8
:10031000000000003A003B003C003D00C55CC75CAB
:10032000C95CCB5CCD5C00000000000042004300D3
:1003300044004500000000000000000000001150D3
:1003400000000000000000000000000000010101AA
:100350000101010101010202020202020202020382
:100360000303030303030304040404040404050552
:100370000505050606060606070707070708080815
:1003800008090909090A0A0A0B0B0B0C0C0C0D0DC4
:100390000D0E0E0E0F0F0F1010111111121213135C
:1003A0001414151516161717181819191A1A1B1BD5
:1003B0001C1D1D1E1E1F2020212222232424252631
:1003C00026272829292A2B2C2D2D2E2F3031323269
:1003D000333435363738393A3B3C3D3E3F40414275
:1003E000434445464748494A4C4D4E4F505153545B
:1003F000555658595A5B5D5E5F616264656668690F
:100400006B6C6D6F7072737577787A7B7D7E80828E
:10041000838587888A8C8E8F91939596989A9C9ED7
:10042000A0A2A3A5A7A9ABADAFB1B3B5B7BABCBEE7
:10043000C0C2C4C6C9CBCDCFD1D4D6D8DBDDDFE2B4
:10044000E4E7E9EBEEF0F3F5F8FAFDFF22034200F2
:100450004D0034003000200048006F00740073002D
:100460007700610070002000520047004200000049
:1004700016034B00500052006500700075006200CA
:100480006C006900630000000403090409023B00DA
:10049000020100A0FA090400000103010100092182
:1004A000110100012240000705810308000A090428
:1004B00001000103000000092111010001227B005D
:1004C0000705820320000A12010002000000085004
:1004D0004B303401000102000105010902A1018530
:1004E000020901A100050919012908150025019536
:1004F00008750181020501093009311581257F95B3
:10050000027508810609381581257F9501750881D6
:1005100006050C0A38021581257F950175088106AC
:10052000C0C005010980A101850319012AB7001582
:100530000126B700950175108100C0050C0901A1C5
:1005400001850419012AA002150126A00295017552
:10055000108100C005010906A101050719E029E77E
:100560001500250195087501810295017508810125
:100570000507190029FF150026FF0095067508815B
:100580000005081901290595057501910295017568
:10059000039101C011241FBECFEFDAE0DEBFCDBF53
:1005A00004B603FE27C080913A0490913B04A091C9
:1005B0003C04B0913D048730904BA740B04BD1F440
:1005C00010923A0410923B0410923C0410923D04A5
:1005D00014BE84B7877F84BF0FB6F894A895809126
:1005E0006000886180936000109260000FBEE0E0C0
:1005F000F8E3099512E0A0E0B1E0ECE6F6E602C00F
:1006000005900D92AE36B107D9F724E0AEE6B2E020
:1006100001C01D92AA33B207E1F70E9498140C940E
:10062000B1320C94000081E00E9431250C946A29BB
:1006300080E00E9431250C94B22981E0089581E088
:1006400008950C941F0308950C9423031F93CF93D4
:10065000DF9300D000D00F92CDB7DEB749835A8325
:100660006B833091700289819A8131111DC066239C
:10067000B9F02223A9F00E947A0A182F682F8981E5
:100680009A810E94230A69817A81812F0F900F90AD
:100690000F900F900F90DF91CF911F910C94CA1083
:1006A0000E94510A182FEFCF0E947A0A69817A813D
:1006B000EDCFFC01262F40815181628173818481BD
:1006C0000C94260381E00895CF93DF93D82FC92F90
:1006D00060E00E9459036D2F7C2FDF91CF910C9425
:1006E00024030E94F1120E94EA030E9407250C9441
:1006F0002A130C942D1308950E94FC070E947B037B
:100700002FEF84E39CE0215080409040E1F700C04F
:1007100000000C94742A0F931F93CF93DF938C01E6
:1007200061E00E945903EC01B8010E942103882373
:10073000D9F1B801CE010E9462278823A9F1B8013E
:10074000CE010E94B727882379F1B801CE010E941B
:100750008F28882349F1B801CE010E945C268823A6
:1007600019F1F8018281882361F0CB35FDE5DF07BF
:1007700021F170F4C115ECE5DE07A1F0CF3DDC45B9
:10078000C9F0C801DF91CF911F910F910C941D0307
:10079000CC358DE5D807A1F0CD35DD4591F70E9428
:1007A000550EEFCF0E947C0380E0DF91CF911F9127
:1007B0000F9108950E94CF0FF7CF0E945E0EE1CFF8
:1007C0000E94610EDECF08950C94E30381E008954A
:1007D0000C94E6030895CF93C82F0E94E4038C2F56
:1007E000CF910C94E803EF92FF920F931F93CF9356
:1007F000DF93CDB7DEB72B970FB6F894DEBF0FBEF1
:10080000CDBF042F4F83152F588769877A878B8731
:10081000EA84FB8461110E94860E1E8285E0FE013F
:100820003796DE01119601900D928A95E1F7EF2837
:10083000A9F449815A816B817C818D819E810E94BE
:10084000840D2B960FB6F894DEBF0FBECDBFDF919F
:10085000CF911F910F91FF90EF90089510231F3FAC
:1008600041F3CE0101960E9462038111E2CFE9CFEC
:10087000FC01808191810C94BC0ACF93C82F8823FE
:1008800009F48AC08238C1F40E94BE2881FD84C068
:1008900089E30E941E0E0E94B70E2FEF31EE84E016
:1008A000215030408040E1F700C0000089E30E9401
:1008B000250ECF910C94B70E8338A1F40E94BE2868
:1008C00080FD6AC083E50E941E0E0E94B70E9FEF56
:1008D00021EE34E0915020403040E1F700C00000AC
:1008E00083E5E5CF8438A1F40E94BE2882FD54C080
:1008F00087E40E941E0E0E94B70E8FEF91EE24E057
:10090000815090402040E1F700C0000087E4CFCF45
:100910008CEF8C0F813A90F46C2F8091D3019091E1
:10092000D4010E942229882329F08C2F0E94250EB1
:100930000E94B70E8C2F0E941E0EBBCF80E28C0F40
:10094000883048F4C77081E001C0880FCA95EAF783
:100950000E94670EAECF8BE58C0F833038F42C2FBE
:100960002452330BC901CF910C94E428E8E5EC0F35
:10097000E73150F4F0E0EE0FFF1FEF50FE4F8081A3
:100980009181CF910C94FA28CD3E30F08C2F0E94AB
:100990002615CF910C94E815CF910895882309F47A
:1009A00052C0823871F40E94BE2881FF4CC089E396
:1009B0000E941E0E0E94B70E89E30E94250E0C9421
:1009C000B70E833859F40E94BE2880FF3CC083E5EF
:1009D0000E941E0E0E94B70E83E5EFCF843859F4B3
:1009E0000E94BE2882FF2FC087E40E941E0E0E9434
:1009F000B70E87E4E2CF9CEF980F913AF0F290E2C5
:100A0000980F983050F4877091E001C0990F8A9543
:100A1000EAF7892F0E946D0ED2CF9BE5980F933095
:100A200020F490E080E00C94E42898E5980F97314A
:100A300020F490E080E00C94FA288D3E20F00E9493
:100A40006F150C94E81508951F93CF93DF93182F1B
:100A5000EB010E943D04209731F4812FDF91CF916B
:100A60001F910C94CE048FE99FE00197F1F700C02D
:100A700000002197F0CF70E060E0893311F460E569
:100A800070E00C942405882321F00E94670E0C94DA
:100A9000B70E0895882321F00E946D0E0C94B70EB6
:100AA0000895AF92BF92CF92DF92EF92FF920F9391
:100AB0001F93CF93DF9300D000D00F92CDB7DEB756
:100AC0006C016D837983FC011281058102950F70A1
:100AD0000E943C0EE82E8823A1F0E12E112389F01C
:100AE0008981807F803429F08D81805EE12C88307F
:100AF00040F082E00E94080F0E943C0E91E0E82E38
:100B0000E926A980A2949FE0A922B12CF501ED5419
:100B1000FD4C0C94803109810F70F981F07F11F048
:100B20000295007F1123B1F0002361F08D81805E7A
:100B3000883018F01D81111109C0802F0E94670EA6
:100B40000E94B70E8D810E943D0415C0802F0E9427
:100B5000780EF6CF8D810E94CE04002361F08D8146
:100B6000805E883018F01D81111133C0802F0E94E3
:100B70006D0E0E94B70E98E0A91AB108E4E0AE1617
:100B8000B10420F40E94BE280E94EB03EE2009F479
:100B9000CEC10E94380E80FDCAC1F60112820E94A9
:100BA000320E0E941309C6010E94BE070E94320E37
:100BB0000F900F900F900F900F90DF91CF911F919A
:100BC0000F91FF90EF90DF90CF90BF90AF900C947B
:100BD0004409802F0E947E0ECCCF29812F70F22EE7
:100BE0003981307F303219F0F29480EFF8228D8114
:100BF000882369F0813049F1112391F1002351F1EB
:100C0000F601858180FF9ECF8F70858323C01123DD
:100C100081F0011106C00E949A0E8F290E9443059F
:100C2000AACF0130C1F70E949A0E8F290E94A00E10
:100C3000A2CF011106C00E94AD0E8F2D0E944A0561
:100C40009ACF013009F497CFF6CF112329F006305F
:100C500008F091CF8F2DE2CF053008F08CCFEDCF8B
:100C6000002359F30D81093349F41FEF27EE33E0D8
:100C7000115020403040E1F700C000008D810E94FB
:100C8000CE0479CF898186958695837069F081300D
:100C900009F071CF8D8199819370111102C090E09C
:100CA00080E00E94FA2867CF8D819981937011119D
:100CB00002C090E080E00E94E4285DCF8D81112386
:100CC00029F00E9426150E94E81555CF0E946F1545
:100CD000FACF8981837009F050C011114CCF2D815A
:100CE000229526952770220F220F4D814F7050E0DC
:100CF00070E060E0022E04C0440F551F661F771F8E
:100D00000A94D2F70D8180E090E0DC0104FF0FC06F
:100D10008FE090E0A0E0B0E004C0880F991FAA1F08
:100D2000BB1F2A95D2F780959095A095B095198113
:100D30001695169513701D838C019D01042B152BA0
:100D4000262B372B09831A832B833C831D816981D2
:100D50007A818B819C81123051F0133059F011301F
:100D600019F00E94890807CF0E94610804CF0E94F1
:100D7000B10801CF0E945F08FECE112309F448C0DC
:100D8000098100FFF8CE2D81229526952770220F2C
:100D9000220F4D814F7050E070E060E0022E04C0E1
:100DA000440F551F661F771F0A94D2F70D8180E00C
:100DB00090E0DC0104FF0FC08FE090E0A0E0B0E025
:100DC00004C0880F991FAA1FBB1F2A95D2F78095D0
:100DD0009095A095B09519811695169513701D8361
:100DE0008C019D01042B152B262B372B09831A838D
:100DF0002B833C831D8169817A818B819C81123098
:100E000071F0133079F0113039F00E94D209B3CE6D
:100E1000198111FFB0CEB7CF0E94AA09ACCE0E94B3
:100E2000FA09A9CE0E94DD08A6CE09810F700983B8
:100E3000112329F0802F0E9413098D81EFCE8D811F
:100E40000E944A0589810E94440995CE2D81223F46
:100E5000A1F160F4203FE1F0213F41F1112309F4B9
:100E600045C001116FCE89818F7124C03D81333F10
:100E700049F1343F99F7112379F109810F71098301
:100E8000802F0E94130963E089810E94ED0E73CECA
:100E9000112341F0053008F06ECE89818F710E94D8
:100EA000790969CE063008F066CEF7CF89818F7157
:100EB000112349F20E9413095ECE89818F7111239B
:100EC000C9F3C1CF112329F089818F710E94EE08E7
:100ED00052CE0E94E9084FCE81E00E94080F0230F6
:100EE00008F449CE82E00E94080F45CE002361F04D
:100EF0001D81193309F0C2CE2FEF37EE83E0215068
:100F000030408040E1F7B8CE89818F719CCF498114
:100F10004F706D81C6010E94C6100E94F20A2BCE4E
:100F200049814F706D81C6010E94C91024CE0F9077
:100F30000F900F900F900F90DF91CF911F910F9115
:100F4000FF90EF90DF90CF90BF90AF9008950F93F8
:100F50001F93CF93DF93EC01688179818A810E948E
:100F6000C80A8C010E94220A0E945E08B801CE01C4
:100F7000DF91CF911F910F910C945105CF93DF9387
:100F8000EC01988189812B813C81232B19F08923E5
:100F90008F3F59F4DF91CF910895CE010E94A707AA
:100FA000CE01DF91CF910C946403CE010E948B039C
:100FB0008111F3CF0E943C0E882361F38A8188233C
:100FC00049F382E0DF91CF910C94080F90E080E02C
:100FD0000E94E42890E080E00E94FA280E94860E99
:100FE0000E94970E0E94B70E0E9413170C94E815EA
:100FF0000E942C0E0C94E6070E94750E0C94F807C4
:10100000282F892F82958F70903C80F48A30B0F41D
:10101000843020F4823090F480E008958630E1F747
:1010200081E0283E88F0213FB9F70EC08C3011F0E6
:101030008F3091F793FB882780F9089581E0203F56
:1010400039F018F4283E40F70895243F29F7FCCFE3
:101050000895FC01808191810E94BC0A0C940008D3
:10106000CF93DF9300D000D00F92CDB7DEB70F90B3
:101070000F900F900F900F90DF91CF910895CF9325
:10108000DF9300D000D000D0CDB7DEB726960FB6E4
:10109000F894DEBF0FBECDBFDF91CF9108950895C4
:1010A0000C944F080E94500860939302709394022E
:1010B00080939502909396020C94E60708950C9401
:1010C0005208CF93DF9300D000D0CDB7DEB769834D
:1010D0007A838B839C838091930290919402A09158
:1010E0009502B091960229813A814B815C81282B2F
:1010F000392B4A2B5B2B29833A834B835C83CA01B0
:10110000B9010F900F900F900F90DF91CF910C9439
:101110005208CF93DF9300D000D0CDB7DEB76983FC
:101120007A838B839C838091930290919402A09107
:101130009502B091960229813A814B815C812823E6
:1011400039234A235B2329833A834B835C83CA0177
:10115000B9010F900F900F900F90DF91CF910C94E9
:101160005208CF93DF9300D000D0CDB7DEB76983AC
:101170007A838B839C838091930290919402A091B7
:101180009502B091960229813A814B815C81282792
:1011900039274A275B2729833A834B835C83CA011B
:1011A000B9010F900F900F900F90DF91CF910C9499
:1011B00052080C944F080C94D9080E94DB086093E5
:1011C0008F027093900280939102909392020C94FC
:1011D000E60760E070E0CB010C94DD080F931F93ED
:1011E000CF93DF9300D000D0CDB7DEB741E050E021
:1011F00060E070E08A019B0104C0000F111F221FF4
:10120000331F8A95D2F709831A832B833C83C90144
:10121000B8010F900F900F900F90DF91CF911F9119
:101220000F910C94DD080F931F93CF93DF9300D0A1
:1012300000D0CDB7DEB741E050E060E070E004C020
:10124000440F551F661F771F8A95D2F780918F0232
:1012500090919002A0919102B09192028A019B011B
:10126000082B192B2A2B3B2B09831A832B833C83B6
:10127000C901B8010F900F900F900F90DF91CF919F
:101280001F910F910C94DD080F931F93CF93DF9361
:1012900000D000D0CDB7DEB741E050E060E070E0B4
:1012A00004C0440F551F661F771F8A95D2F74095DB
:1012B00050956095709580918F0290919002A091C9
:1012C0009102B09192028A019B01082319232A23DB
:1012D0003B2309831A832B833C83C901B8010F90F8
:1012E0000F900F900F90DF91CF911F910F910C9461
:1012F000DD080F931F93CF93DF9300D000D0CDB7BD
:10130000DEB741E050E060E070E004C0440F551FDC
:10131000661F771F8A95D2F780918F029091900275
:10132000A0919102B09192028A019B01082719278E
:101330002A273B2709831A832B833C83C901B801E1
:101340000F900F900F900F90DF91CF911F910F9101
:101350000C94DD08CF93DF9300D000D0CDB7DEB77B
:1013600069837A838B839C8380918F029091900212
:10137000A0919102B091920229813A814B815C81C6
:10138000282B392B4A2B5B2B29833A834B835C8395
:10139000CA01B9010F900F900F900F90DF91CF917C
:1013A0000C94DD08CF93DF9300D000D0CDB7DEB72B
:1013B00069837A838B839C8380918F0290919002C2
:1013C000A0919102B091920229813A814B815C8176
:1013D000282339234A235B2329833A834B835C8365
:1013E000CA01B9010F900F900F900F90DF91CF912C
:1013F0000C94DD08CF93DF9300D000D0CDB7DEB7DB
:1014000069837A838B839C8380918F029091900271
:10141000A0919102B091920229813A814B815C8125
:10142000282739274A275B2729833A834B835C8304
:10143000CA01B9010F900F900F900F90DF91CF91DB
:101440000C94DD080895E82F2CE0929FE00D112404
:101450008E2F877041E001C0440F8A95EAF7E69528
:10146000E695E69585E0E89FF0011124EF58FD4FE1
:1014700030E020E070E05191DF011197CB01022EA6
:1014800002C0969587950A94E2F781708195852729
:10149000842385278C932F5F3F4F2530310559F7E3
:1014A0000895E82F2CE0929FE00D11249E2F977055
:1014B000E695E695E69585E0E89FF0011124EF5862
:1014C000FD4F50E040E080E0219130E0092E02C065
:1014D000369527950A94E2F721703327042E01C030
:1014E000220F0A94EAF7822B4F5F5F4F4530510578
:1014F00059F70895BF92CF92DF92EF92FF920F9328
:101500001F93CF93DF938C01C0908F02D0909002F5
:10151000E0909102F0909202809193029091940257
:10152000A0919502B0919602C82AD92AEA2AFB2AEC
:10153000CFE1D0E0BC2ED701C6010C2E04C0B69579
:10154000A795979587950A94D2F780FD0EC02197AD
:1015500088F7B12C8B2DDF91CF911F910F91FF90C8
:10156000EF90DF90CF90BF900895B8018C2F0E942C
:10157000F811019761F3EECFCF93DF93D82FC92FE6
:101580000E947A0A6D2F7C2FDF91CF910C94F81175
:101590001F93CF93DF93162FD72F9091700299232B
:1015A00039F0862F972FDF91CF911F910C94BC0AB1
:1015B000882391F0862F972F0E947A0AC82F682FD0
:1015C000812F9D2F0E94230A612F7D2F8C2FDF9169
:1015D000CF911F910C94F811862F972F0E94510ADA
:1015E000C82FF2CFEF92FF920F931F93CF93DF9309
:1015F0008C01892B89F0F12CEE24E394E8012196EB
:10160000F8018491843709F458C0A0F4823009F4B9
:101610003FC048F48130D1F0DF91CF911F910F91FD
:10162000FF90EF9008959CEF980F9037A8F70E94D5
:101630003D040AC0853709F44EC09CE7980F9037E7
:1016400058F78F770E94CE048E0116C00E5F1F4F91
:10165000FE01849190E2980F983060F48770FE2D1F
:1016600001C0FF0F8A95EAF78F2F0E94890E0E9412
:10167000B70E02C00E943D048F2D882309F4BECF0F
:10168000EFE9FFE03197F1F700C000008150F5CF9E
:101690000E5F1F4FFE01849190E2980F983050F436
:1016A0008770FE2D01C0FF0F8A95EAF78F2F0E94E9
:1016B0008F0EDDCF0E94CE04DFCF0E5F1F4FFE01E5
:1016C000C491CC23C9F28FE99FE00197F1F700C0E4
:1016D0000000C150F6CF0E5F1F4FFE01F490CCCF3B
:1016E0001F93CF93DF93E091970216E080919802C9
:1016F0008E1304C0DF91CF911F910895CE2FD0E0BB
:101700001E9FF0011124E756FD4F408151816281F7
:101710007381848195810E943F082196EC2FE770A8
:10172000E5CF4091C9025091CA026091CB027091FD
:10173000CC028091CD029091CE020C943F081F9371
:10174000CF93DF938091CE02807FA9F48091CB026A
:10175000882389F080919702C09198027091C90204
:101760006091CA02A091CC02B091CD02D62FD723AE
:1017700016E0C81304C0DF91CF911F91089590E047
:10178000109711F0DF3F19F401968770F2CF189F80
:101790009001199F300D1124F901E756FD4F418149
:1017A0006413F2CF40814713EFCF42814111ECCF58
:1017B000438154814A1B5B0B483C510528F78091BB
:1017C000CE028F7080618093CE02F901E256FD4F08
:1017D00080818F708061808389EC92E00E94BE07D7
:1017E000DF91CF911F910C94700BAF92BF92CF926B
:1017F000DF92EF92FF920F931F93CF93DF93CDB7BA
:10180000DEB72B970FB6F894DEBF0FBECDBF8C01AD
:1018100085E0F801DE01179601900D928A95E1F7B7
:10182000F801E280C380D48089ECA82E82E0B82E33
:101830002091C9029091CA024091CC025091CD02F0
:101840004115510529F0892F82238F3F09F049C1A5
:10185000EE2009F455C1C8010E942908F82E8823FA
:1018600009F44EC186E0F801A9ECB2E001900D92B6
:101870008A95E1F789EC92E00E9438040E949F0B60
:1018800000C18091CE02682F607F483C510508F06E
:10189000A8C0F80131816111E0C0FE2C391325C0C8
:1018A0009081921322C0E11020C08F7080618093DC
:1018B000CE020E94910B89EC92E00E94BE078091BB
:1018C000CE02F80185838F2D2B960FB6F894DEBFDC
:1018D0000FBECDBFDF91CF911F910F91FF90EF9081
:1018E000DF90CF90BF90AF9008952F81CD2829F041
:1018F000832F82238F3F09F0ADC080E0F82FF17075
:10190000DF2EE09197024091980256E080FD1CC0C6
:10191000EE20C9F28091CE0281608093CE02F12C3C
:10192000D2CF8E2F90E05E9FF0011124E756FD4F3D
:101930006181361306C06081621303C06281E612C2
:10194000E7CF0196E82FE770E413EBCF8F819885FE
:101950000E94BC0A292F22952F70903260F0225FDE
:101960002F70223078F49F7051F0F8019581907FAC
:1019700031F4D12C0AC09F7011F08823D1F3805E1E
:101980008830B8F3C8010E94BE07FD2C9CCFC80167
:101990000E942908882309F4B3C0EE2009F4B0C0DE
:1019A0008091CE02803270F02091C9023091CA023B
:1019B0003A8329831B82DD82CC828E83CE010196FD
:1019C0000E94BE0786E0F801A9ECB2E001900D92FA
:1019D0008A95E1F70E949F0B0E94910BFF24F394DC
:1019E00072CF611151C04F81588569857A858B8589
:1019F0000E94300889EC92E00E94BE0786E0F50163
:101A000011928A95E9F70E94910B89CF86E0F8013F
:101A1000A9ECB2E001900D928A95E1F754CFC8018C
:101A20000E9429088111CECF8091CE0281608093DF
:101A3000CE02C8010E94BE0746CF4F8158856985F6
:101A40007A858B850E94300886E0F50111928A958F
:101A5000E9F717C081E08E2551CF391398CFF801EF
:101A60009081921394CFE11092CF8583C8010E9498
:101A7000BE0786E0F801A9ECB2E001900D928A95CC
:101A8000E1F70E94910B1FCFF801318193137FCFB3
:101A9000F801908192137BCFE11079CF8583C80143
:101AA0000E94BE0786E0F50111928A95E9F70BCFF7
:101AB000F80181819813B3CFF80180818213AFCFF1
:101AC0008091CE0280FDA2CF982F907F09F49ECF07
:101AD0008583903F59F2982F907F905F8F70892B6C
:101AE000C4CFF090CB02B601641B750BAB01F110B3
:101AF000C8CE483C510508F0A0CFFE2CE110D8CF4D
:101B0000C8010E94BE076ACF1F93CF93DF93CDB762
:101B1000DEB72C970FB6F894DEBF0FBECDBF4F8354
:101B2000588769877A878B879C87CE0107960E94A2
:101B3000F50B882369F08A859B85892B39F05885B8
:101B40004F81852F84238F3F09F071C016E05FC05D
:101B500086E0FE013796DE01119601900D928A957E
:101B6000E1F78F81988520919802409197026A85CC
:101B70007B85672B59F389238F3F41F330E0C901FF
:101B80000196877099274817190671F40E94FC077F
:101B9000109298021092970286E0E9ECF2E0DF01E1
:101BA0001D928A95E9F7D2CF96E0929FD001939F3C
:101BB000B00D1124A756BD4FFE01319601900D9234
:101BC0009A95E1F7809398020E94700BBFCF819F96
:101BD000C001112487569D4F0E94F50B8823E9F020
:101BE000E09197021E9FF0011124E756FD4F4081BE
:101BF000518162817381848195810E943F08809127
:101C0000970290E0019687709927809397028091C0
:101C10009702909198028913DACF2C960FB6F89418
:101C2000DEBF0FBECDBFDF91CF911F9108956985B3
:101C30007A858B859C850E943F0888CF682F80918C
:101C4000D3019091D4010C945C29682F8091D30129
:101C50009091D4010C945E298091D3019091D4018C
:101C60000C9460298091CF0285958595859508957E
:101C70008091CF02877008959091CF02977081E094
:101C800009F480E008959091460392FB222720F901
:101C9000281751F080FB92F99093460380914503F9
:101CA000909146030C944B0F08958091460382FB5C
:101CB000882780F991E089270C94430E81E00C94E9
:101CC000430E80E00C94430E8091DB0208959091C6
:101CD000DB02982B9093DB020895982F90958091CA
:101CE000DB0289238093DB0208951092DB020895C2
:101CF0009091DA02982B9093DA020895982F90959C
:101D00008091DA0289238093DA0208951092DA0230
:101D100008959091D902982B9093D9020895982F05
:101D200090958091D90289238093D90208951092C9
:101D3000D90208958091D002089508950C949D0EC3
:101D40009091460392FD08C09091D002981721F01F
:101D50008093D0020C949E0E08958091D002882327
:101D600029F01092D00280E00C949E0E0895E0912C
:101D7000D301F091D4018091DB028083E091D30103
:101D8000F091D40180819091DA02892B8083E091D7
:101D9000D301F091D40180819091D902892B808365
:101DA0009091D002992381F0E091D301F091D40178
:101DB0008081892B80838091D3019091D4010E94EE
:101DC000102981110E94AD0E8091D3019091D40110
:101DD0000C94CA2808950C94EA0E9091460392FD43
:101DE00010C098E0899F90011124622B6093CF026C
:101DF0000E9413098091CF028595859585950C9455
:101E0000EB0E0C9413091092CF0280E00C94EB0EB1
:101E10009091CF02809589238093CF02282F27703D
:101E200039F4282F082E000C330B9217130621F4D7
:101E30009091460392FF07C08595859585950E94F0
:101E400044090C94030F08956FEF7FEF90E080E05A
:101E50000C94893290E080E00E9455329C0181E030
:101E6000293E3E4F09F080E0089582E090E00C9416
:101E70004D3283E090E00C944D32CF9384E090E0BB
:101E80000E944D32C82F82E290E00E944D32982F7E
:101E90008C2FCF910895CF93682FC92F84E090E0C5
:101EA0000E946B326C2F82E290E0CF910C946B32E7
:101EB000AB01BC018FE090E00C947D32AB01BC0122
:101EC00083E190E00C947D3260E070E0CB010C94F3
:101ED0005E0F60E070E0CB010E94580F0C94640F1D
:101EE00069EE7EEF90E080E00E94893260E082E05F
:101EF00090E00E946B3260E083E090E00E946B32E1
:101F000010929302109294021092950210929602EF
:101F100060E084E090E00E946B3260E082E290E05A
:101F20000E946B3260E085E090E00E946B3260E0DE
:101F300086E090E00E946B326FEF87E090E00E94B5
:101F40006B3240E050E0BA0188E090E00E947D32C0
:101F500060E08DE090E00E946B3240E050E0BA011A
:101F600088E190E00E947D3260E087E190E00E948D
:101F70006B3240E050E0BA018CE190E00E947D328B
:101F800070E060E080E290E00E94893240E050E042
:101F9000BA0188E190E00E947D320C94690F0C94A4
:101FA000700F682F8EE090E00C946B320E94FA293B
:101FB0006093E9027093EA028093EB029093EC0243
:101FC0006093E5027093E6028093E7029093E80243
:101FD000089585B7806885BF85B7806885BF0895F7
:101FE000089508950C94F00F08950C94F40F0E9436
:101FF000E90F87ED92E10E94982A0E94F10F0C945C
:10200000F20F81E008950C940110089508950E9444
:1020100005100C9406100E94E5290E94EE130C9402
:10202000F50F8F929F92AF92BF92CF92DF92EF9275
:10203000FF920F931F93CF93DF9300D000D00F92A6
:10204000CDB7DEB70E94101481110E94D60F5DED4E
:10205000852E52E0952E10E000E0C02E802F0E94C9
:102060002F137C01F401A190B1904F01A816B9067D
:10207000B1F40F5F1F4F0430110579F78FEF89839B
:102080008A831B820E94EE298160782F9D838C8336
:1020900049815A816B81892F0E94F3033DC0809151
:1020A000ED0281FD0E943813C5018E259F25D12C9C
:1020B000AA24A394B12C9C012A213B21232B09F4AF
:1020C0004CC00E94031097012A213B21FF24F39466
:1020D000232B09F4F12C882379F0D982CA82FB8260
:1020E0000E94EE298160782F9D838C8349815A81DB
:1020F0006B81892F0E94F303000F111FF801E35237
:10210000FD4F808191818A259B25918380834F2D6E
:102110006D2D8C2D0E9469220E9429240E94021696
:102120000E94BE289091DC028917F1F00E94BE281F
:102130008093DC020F900F900F900F900F90DF9123
:10214000CF911F910F91FF90EF90DF90CF90BF90B4
:10215000AF909F908F900C94EB03D394AA0CBB1C70
:10216000FCE0DF12A8CF85CF0F900F900F900F905B
:102170000F90DF91CF911F910F91FF90EF90DF9023
:10218000CF90BF90AF909F908F90089590E080E0A7
:1021900008950895972F70E02CE0929F600D711DB7
:1021A0001124FB0190E3899FE00DF11D1124EE0F36
:1021B000FF1FE455FF4F859194910895FC01EE0FA8
:1021C000FF1FE45BFC4F859194910895CF93DF93BB
:1021D0000E94FC11EC01811520E5920708F043C034
:1021E000811530E4930708F0B2C0803E9105E8F411
:1021F000803C910508F0A0C0883A910578F4853AB2
:10220000910508F08BC08130910521F00497813A47
:10221000910540F4CE01DF91CF9108958F3B910558
:1022200009F07FC0D0E0C0E0F5CFC11580E2D8074B
:1022300070F4CF3FD10509F068F7C83ED10550F3DF
:10224000CE018D5E9109D065439720F3EBCFCE018F
:10225000C11520E3D20708F475C09927D3FD74C0D7
:10226000EC01D06CD7CF811535E5930760F5C1152A
:1022700084E5D80708F09EC0C11523E5D20778F49D
:10228000C11532E5D30708F082C0C11581E5D80732
:1022900008F460C0DC2FCC27C16FD06ABBCF9E0191
:1022A0002370332781E090E002C0880F991F2A95A0
:1022B000E2F7C695C69520E2C29FE0011124C82B23
:1022C000D92BDA68A7CF81153AE59307B0F4C11589
:1022D00089E5D80708F07EC0C11526E5D20708F4C5
:1022E0006EC0CE0198558F3F910511F008F09ACF3E
:1022F000DC2FCC27C06FD06A8DCF905681159042CD
:1023000008F090CF8D2F8F710E94941290E0982F3B
:10231000882788279F718C2BEC015AC0A497D06422
:1023200079CFC85AD0E0CC0FDD1FC15EDD4F0990D8
:10233000D881C02DD4646ECF805C91090E94DE10DC
:10234000EC0168CF9F70FACFEC01D86C63CFDF70DF
:10235000D06A60CF9E0174E0369527957A95E1F7B3
:1023600023708C2F86958695837030E2839FC00101
:102370001124922BC37021E030E002C0220F331FE2
:10238000CA95E2F7822B932BEC01DC6843CF9E01C8
:102390002370332781E090E002C0880F991F2A95AF
:1023A000E2F7C695C69520E2C29FE0011124C82B32
:1023B000D92BEBCFDC2FCC27C46FD06A2BCF8C2F3F
:1023C0000E949412C82FD0E0DC2FCC27CC27DF71DD
:1023D000D06220CF8C2F8F700E94941234E0D6955B
:1023E000C7953A95E1F7CF709C2FEC01D06912CFD9
:1023F0000E94CA100C94E610803E910599F1C8F431
:102400008133910509F476C048F48932910509F4C5
:102410006AC08A32910509F474C008958933910520
:10242000D1F082389105B9F08533910509F454C093
:102430000895843E910599F138F4823E9105F9F0B2
:10244000833E910509F10895863E910599F1873EF5
:102450009105B9F10895209145032370A1F080EE14
:1024600090E008952091450320FD52C0309146032D
:1024700030FF09C024FF4FC090E080E004C02091ED
:10248000450322FDF7CF08952091450322FD46C064
:102490003091460330FDE3CF24FFF5CFEDCF2091FF
:1024A000460321FFF0CF8091450384FDE5CF87EE01
:1024B00090E008952091450323FFE5CF24FDDCCF74
:1024C000F6CF2091450323FD2CC03091460331FF08
:1024D000E3CF84EE90E008952091450325FFD3CF0C
:1024E00089E290E008952091450325FFCCCF85E354
:1024F00090E008952091450326FFC5CF8AE290E041
:1025000008952091450326FFBECF81E390E0089512
:1025100089E390E0089583EE90E0089582EE90E0E4
:10252000089586EE90E008959091450392FF06C0CD
:10253000282F28712830F9F4877F846093FF06C024
:10254000282F28712831F1F4877E84612091460379
:1025500020FF06C0382F38713830D9F4877F81606A
:1025600021FF06C0282F28712831D1F4877E816190
:1025700094FD877E0895282F24712430F9F68B7FEF
:102580008860DCCF282F2471243101F78B7E88618D
:10259000DDCF382F3171313019F78E7F8860E0CF71
:1025A000282F2171213121F78E7E8861E1CF80E0D3
:1025B00008950C94240F0E9410148FE39CE9019756
:1025C000F1F700C000000E94101480E00E942F1359
:1025D00080FF04C00E94D9120C94742A08950C94B0
:1025E000DB12CF93DF9300D000D0CDB7DEB70E94CF
:1025F0002A0F811102C00E94CF0F0E94350F8093D5
:10260000ED020E943D0F90934603809345030E9484
:10261000EF120E94390F282F30E050E040E0CA014D
:10262000B9010E945F0880918F0290919002A09161
:102630009102B091920289839A83AB83BC83BC01DF
:10264000CD010F900F900F900F90DF91CF910C94D0
:10265000DB0808950C94291308950C942C13E82F8B
:10266000F0E0EE0FFF1FE15BFC4F80819181089548
:10267000089580EA8A95F1F7089500C008950C94B2
:102680003913F894E82FE295EF70F0E041A18F70D4
:1026900021E030E0B90102C0660F771F8A95E2F7AA
:1026A000CB01962F9095942391A392A1892B82A37D
:1026B00078940895CF93DF9383E30E94411382E3DC
:1026C0000E94411386EC0E94411385E30E9441134E
:1026D000CDE4D2E089918F3F11F00E94411382E056
:1026E000C935D807B9F7DF91CF910895AF92BF925E
:1026F000CF92DF92EF92FF920F931F93CF93DF93CE
:10270000EC01D62E062F10E0C801875A9D4F7C01A0
:10271000FC0180818F3F09F453C0F894E82FE295C3
:10272000EF70F0E091A18F7021E030E001C0220F46
:102730008A95EAF7892F822B81A382A120952823ED
:1027400022A378940E943D13EDE4F2E050E040E0D3
:10275000B12CA12C61E070E081918F3FE1F1A82FB5
:10276000A295AF70A05EB0E02C9130E08F7002C0F7
:10277000359527958A95E2F720FD2DC09B01042E03
:1027800002C0220F331F0A94E2F7A22AB32A4F5F36
:102790005F4F4C30510501F7F70180818F3F11F0F9
:1027A0000E94411361E0A114B10409F460E08D2D91
:1027B0000E943F13000F111FC00FD11FB982A882C2
:1027C000DF91CF911F910F91FF90EF90DF90CF900D
:1027D000BF90AF90089520E030E0D7CF0E945A1309
:1027E000A7E4B3E011961C921E92EFE4F3E011828D
:1027F000108213961C921E921297138212821596C3
:102800001C921E9214971582148217961C921E9287
:1028100016971782168284E00E945E140C9471034E
:10282000FF920F931F93CF93DF93CDB7DEB7289717
:102830000FB6F894DEBF0FBECDBFFE01319688E023
:10284000DF011D928A95E9F710E0FE2E0F2F612F10
:102850008F2D902F0E9476131F5F1430C1F748E030
:1028600050E06F2D702F87E493E00E9420329C018E
:1028700011E0892B09F410E0232B49F088E0EF2DBB
:10288000F02FA7E4B3E001900D928A95E1F7212F94
:1028900044E06FE473E087E493E00E945F140E94D9
:1028A0007903812F28960FB6F894DEBF0FBECDBFF7
:1028B000DF91CF911F910F91FF9008950895FF929E
:1028C0000F931F93CF93DF93F82E092F162FD72F37
:1028D000C42F222349F081E08093F0020E94EE2968
:1028E0009093EF028093EE028091F0028823A1F092
:1028F0008091EE029091EF020E941A2A059760F0F3
:10290000EF2DF02FA12FBD2F90E080E0D0E08C17AD
:102910009D0744F01092F002DF91CF911F910F912B
:10292000FF900895219131912D933D930196EFCF22
:102930000E9468290E94F62B0E940F2C0E94212CD5
:102940000E940710FBCF8091F70280FF12C06091B8
:10295000DA0185E0689FB00111247595679575953A
:10296000679560387105A8F561157105A1F1862F8D
:10297000089581FF09C06091DA0185E0689FB00188
:10298000112475956795EDCF6091DA0182FD0AC03B
:102990002091F6022223D1F09091D9016091DA01C1
:1029A000291728F085E0689FB0011124DACF269F0F
:1029B0009001112485E0829FA001839F500D112476
:1029C000692F70E0CA010E944D31CBCF65E070E005
:1029D000CECF8FE7089581E008958091F70280FFC0
:1029E0000CC06091D60170E07595679575956795F7
:1029F0006115710549F1862F089581FF06C0609128
:102A0000D60170E075956795F3CF6091D60182FD90
:102A10000BC09091F5029923A1F06091D5018091AE
:102A2000D601961738F0682F70E06038710500F312
:102A30008FE70895899FC001112470E00E944D31F5
:102A4000F4CF61E070E0D7CF81E00895E3E1E80FD3
:102A5000E331E0F5F0E0ED53FD4C0C9480310E9441
:102A6000A31481958093FB0208950E94A314FACFCA
:102A70000E94A31481958093FA0208950E94A314E2
:102A8000FACF0E94ED148093FC0208950E94ED1489
:102A90008195F9CF0E94ED1481958093FD020895F0
:102AA0000E94ED14FACF815F990B21E030E001C064
:102AB000220F8A95EAF78091F902822B8093F9021E
:102AC00008958091F70281608093F70208958091C4
:102AD000F7028260F9CF8091F7028460F5CF4091D0
:102AE000FA028D3E59F48091FB0287FF0DC01092CF
:102AF000FB0241110BC01092F60208C08E3E81F419
:102B00008091FB0218169CF3442381F08091FC0213
:102B10009091FD02892B09F05AC01092F502089598
:102B20008F3E49F447FFF0CF1092FA028091FB02EA
:102B30008111ECCFE0CF803F19F41416ACF3E4CF51
:102B40009091FC02893F29F41916F4F61092FC02C8
:102B5000DBCF8A3F19F497FFD7CFF8CF9091FD02D2
:102B60008B3F29F497FFD0CF1092FD02CDCF8C3F41
:102B700019F41916CCF3C8CF9FE0980F983090F451
:102B8000815F990B21E030E0B90102C0660F771F29
:102B90008A95E2F7CB0180959091F9028923809381
:102BA000F902B2CF8D3F31F48091F7028E7F80938E
:102BB000F702AACF8E3F21F48091F7028D7FF7CFE5
:102BC0008F3F09F0A1CF8091F7028B7FF0CF08955E
:102BD0000E94EE292091FA023091FB02232B21F072
:102BE0008093F3029093F4022091FC023091FD0255
:102BF000232B21F08093F1029093F20288EF92E070
:102C00000C94D528CF92DF92EF92FF920F931F93EF
:102C1000CF93DF9300D000D000D0CDB7DEB726E051
:102C2000E8EFF2E0CE010196DC0101900D922A95C9
:102C3000E1F7C090FA02D090FB02E090FC02F09025
:102C4000FD021092FA021092FB021092FC02109206
:102C5000FD022C2D2D298C0191F08091F302909191
:102C6000F4020E941A2A9C018091F602882309F43A
:102C700040C09091DB019217130608F448C08E2DD6
:102C80008F2991F08091F1029091F2020E941A2A0C
:102C90009C018091F502882309F478C09091D701B6
:102CA0009217130608F480C08091FA029091FB02FB
:102CB000892B9091FC02892B9091FD02892B11F0B8
:102CC0000E94E81586E0F801A8EFB2E001900D92AD
:102CD0008A95E1F726960FB6F894DEBF0FBECDBFFA
:102CE000DF91CF911F910F91FF90EF90DF90CF90E8
:102CF00008954091DC019AE0499FA00111244217F8
:102D0000530708F0BCCF8F5F8093F60202C08F3F5D
:102D1000D1F7CC2059F00E94A3149FEF1C140CF49F
:102D200091E0899F802D11248093FA02DD2059F0D3
:102D30000E94A3149FEF1D140CF491E0899F802D35
:102D400011248093FB023091FA02332309F497CFC8
:102D50002091FB02222309F492CF45EB3403C001FA
:102D60001124992359F09093FA0245EB2403900122
:102D70001124332339F03093FB0281CF81E080931B
:102D8000FA02F3CF81E08093FB0279CF4091D80122
:102D90009AE0499FA00111244217530708F084CFFD
:102DA0008F5F8093F50202C08F3FD1F7EE2059F07C
:102DB0000E94ED149FEF1E140CF491E0899F802D6A
:102DC00011248093FC02FF2059F00E94ED149FEF24
:102DD0001F140CF491E0899F802D11248093FD0233
:102DE0003091FC022091FD02332309F45DCF2223B0
:102DF00009F45ACF45EB3403C0011124992359F04B
:102E00009093FC0245EB240390011124332339F005
:102E10003093FD0249CF81E08093FC02F3CF81E043
:102E20008093FD0241CF86E0E8EFF2E0DF011D92E2
:102E30008A95E9F71092F6021092F5021092F702C5
:102E40000895AF92BF92CF92DF92EF92FF920F93CD
:102E50001F93CF93DF938B01282F111114C04423AC
:102E600029F090E0845B9C4FFC018491682F782FBF
:102E7000DF91CF911F910F91FF90EF90DF90CF9056
:102E8000BF90AF900895C12FD0E030E0442329F0E7
:102E9000245B3C4FF901249130E0F6E00F9F700174
:102EA0001124EFEFF0E0C701BF010E943931AB01FF
:102EB000802F90E0880F991FA5E5A49FB001A59FE2
:102EC000700D1124861B970B782F770F780FCF0189
:102ED0008C1B9D0B829FD001839FB00D929FB00DE4
:102EE00011246B2F719FC0011124892F99278F0105
:102EF000081B190BC801829F8001839F100D929FB0
:102F0000100D1124812F5F01A71AB108AC9E60013A
:102F1000AD9ED00CBC9ED00C1124CD2CDD24EC1920
:102F2000FD09E29FE001E39FD00DF29FD00D112437
:102F3000722F43305105D1F09CEFE91693E0F9066A
:102F400070F441305105B1F042305105B9F0EFEF66
:102F5000EE16F10408F08CCF8B2F6D2F89CF443003
:102F6000510579F046305105B9F382CF612F822F98
:102F70007B2F7ECF622F712F8B2F7ACF8D2F622FD9
:102F8000F7CF822F7D2F74CF41E00C9421179C0145
:102F900090E080E0269F812D369F800D911D1124A9
:102FA00008959C018230910508F408959FEF213E19
:102FB0008EE1380740F4C90145E0969587954A951A
:102FC000E1F798E0980F61E0E62FE90FFF27FF1F78
:102FD000AF0155954795842F449FF001459FF00D13
:102FE000F00D11242E173F0738F49FEF940F96171A
:102FF00058F78FEF860F08954F3FE9F361E0640FB4
:10300000F6CF982FE82F96FDE0952E2F2F7096FD86
:103010002F5FE695E695E695E670F0E0E35AFD4F02
:103020008181829F802D212D112482958F70229580
:10303000207F822B2081820F97FD819580580895F3
:103040001F93172F922FE42FF0E0EE0FFF1FEC5C81
:10305000FE4F2081322F24EE329F312D1124472F35
:1030600050E0232F30E0245E3F4F291B310937FF0A
:1030700003C031952195310993E0220F331F9A95B2
:10308000E1F7421B530B57FD40E0742F719F712DE8
:1030900011241F9108951F93182F822FE42FF0E021
:1030A000EE0FFF1FEC5CFE4F2081322F24EE329F8B
:1030B000312D1124412F50E0232F30E0245E3F4F6B
:1030C000281B310937FF03C031952195310983E071
:1030D000220F331F8A95E1F7CA01821B930B9C01D3
:1030E00097FD20E0219F212D1124822F1F9108950B
:1030F000622F0895E42FF0E0EE0FFF1FEC5CFE4F0F
:103100006081621B0895E42FF0E0EE0FFF1FEC5F7B
:10311000FE4F61A9621B0895322F50E0FA01EE0FB5
:10312000FF1FEC5FFE4F91A9905297FD9195440FC0
:10313000551FFA01EC5CFE4F2081231B330B290F36
:10314000311D97FD3A95620F0895EF920F931F93EB
:1031500093E0099F80011124159507956E2D600F4E
:103160001F910F91EF9008950F93CF93DF93D72F77
:10317000C82FB90147FD419528E330E0241B3109F0
:1031800047FD3395229FA001239F500D500D112420
:10319000669FC001679F900D900D1124840F951FAD
:1031A0000E94D117982F990F692F680F600F7D2FFC
:1031B0008C2FDF91CF910F9108950F931F93522F72
:1031C00010E0F801EE0FFF1FEC5FFE4FA1A9A05227
:1031D000BB0B9D015203F001539FF00D1124000F12
:1031E000111FD801AC5CBE4F2C912057330B42030A
:1031F000D001439FB00D11249F012A0F3B1F37FFC1
:1032000002C021583F4F220F232F221F330B620F82
:103210001F910F9108950F931F93522F10E0F80103
:10322000EE0FFF1FEC5FFE4FA1A9A052BB0B9D014B
:103230005203F001539FF00D1124000F111FD8010C
:10324000AC5CBE4F2C912057330B4203D001439FFF
:10325000B00D11249F012A0F3B1F37FF02C0215CD4
:103260003F4F96E0359527959A95E1F7620F1F91AC
:103270000F9108950F931F93A42F10E0F801EE0F04
:10328000FF1FEC5CFE4F9081905797FD9195000FCA
:10329000111FF801EC5FFE4F01A90052110B200332
:1032A000A001219F500D112428E330E0291B310992
:1032B00097FD33951A2F1203F001139FF00D11247F
:1032C0004E0F5F1F9A01220F331F240F351F37FF48
:1032D00002C021583F4F220F232F221F330B620FB2
:1032E0001F910F9108950F931F93CF93DF938B013D
:1032F000D82FC42F822F0E940118EC2FF0E0EE0F80
:10330000FF1FEC5CFE4F90819058980F97FD9195B0
:10331000990F692F2CE0629F612D1124600F712F8E
:103320008D2FDF91CF911F910F910895E42FF0E041
:10333000EE0FFF1FEC5CFE4F9081921B97FD919565
:10334000292F38E1239F212D1124620F08954095E4
:10335000282F429F412D1124842F089522E8241BF9
:1033600008F420E0620F0895EF92FF920F93282F48
:10337000C70135E0039F800D911D11248F3F9105FA
:1033800019F010F08FEF90E08095382F230F08F49C
:103390002FEF822F0F91FF90EF900895EF92FF9201
:1033A0000F93E00EF11CF90137FF03C0F195E19591
:1033B000F10924E0EE0FFF1F2A95E1F7EF3FF10539
:1033C00019F014F0EFEFF0E09A0157FF03C03195C8
:1033D0002195310994E0220F331F9A95E1F72E17BA
:1033E0003F070CF4F901EE0DFF1DEF3FF10519F059
:1033F00010F0EFEFF0E0E095282F3E2F230F08F4B8
:103400002FEF822F0F91FF90EF900895EF92FF9290
:103410000F93972FFA01B9019701093430F4201B5B
:1034200031092F3F310519F010F02FEF30E03896B9
:10343000719740F0AB01485F5F4F4131510510F08B
:103440002FEF30E02095382F320F08F43FEF77FF51
:1034500002C06D5F7F4F75956795759567958091F3
:103460005803680F792F832F0F91FF90EF900895E5
:10347000EF92FF920F93282FC701801B91098F3F76
:10348000910519F010F08FEF90E0382F3095230F51
:1034900008F42FEF680F822F0F91FF90EF9008959F
:1034A000EF92FF920F93282FC701801B91098F3F46
:1034B000910519F010F08FEF90E08095382F230FD1
:1034C00008F42FEF822F0F91FF90EF900895FC01E9
:1034D0009B01009719F4832F80780895AC0197FF22
:1034E00004C044275527481B590BB901640F751FA9
:1034F00037FD0FC0241B350BC901A5E0880F991FAC
:10350000AA95E1F70E944D3180E2861BF7FD819577
:103510000895CB0165E0880F991F6A95E1F7BA011C
:10352000621B730B0E944D3180E6EFCF0F931F9308
:10353000CF93DF93D62F172FC82FBA01C901212FA0
:10354000201B022F0E94671A982F990F990F782F2E
:10355000791B700F719F712D11246D2F8C2FDF91AE
:10356000CF911F910F9108950F931F93CF93DF93E6
:10357000D62FC72F182FBA01C901212F201B022FC8
:103580000E94671A982F990F990F282F291B200F37
:10359000219F212D11246D2F7C2F822FDF91CF9120
:1035A0001F910F910895EF920F931F93CF93DF9385
:1035B000D62F172FC82FBA01C9010E19010F0E946B
:1035C000671A702F781B719F712D11246D2F8C2F0E
:1035D000DF91CF911F910F91EF900895EF920F938C
:1035E0001F93CF93DF93D62FC72F182FBA01C9018E
:1035F0000E19010F0E94671A081B019F012D11244B
:103600006D2F7C2F802FDF91CF911F910F91EF9025
:1036100008950F93CF93DF93D72FC82FBA01C90115
:103620000E94671A682F600F7D2F8C2FDF91CF913A
:103630000F910895EF920F93CF93DF93D72FC82F59
:10364000BA01C9010E190E94671A602F681B7D2FED
:103650008C2FDF91CF910F91EF9008950C94C417A8
:1036600046E050E06CE170E087E593E00C943D3279
:1036700046E050E06CE170E087E593E00C945B324B
:10368000E7E5F3E085E380838091EE019091EF011F
:10369000A091F00181839283A3838FE784838FEFCE
:1036A00085830C94381B80E008950F931F93CF936C
:1036B000DF93C82FD62F8A010E94531B9CE0C99F1D
:1036C000F0011124EC5FFE4FED0FF11D90819F3F43
:1036D00029F0F801E80FF11D90838F5FDF91CF9102
:1036E0001F910F910895E0916B02F0916C02099483
:1036F000E0916702F091680209943F924F925F92C5
:103700006F927F928F929F92AF92BF92CF92DF92F1
:10371000EF92FF920F931F93CF93DF933C012B0106
:10372000FC01C0818BE0C89FC02D11241BE01C0F41
:10373000312E163310F035E3332E60915B0366951E
:1037400080915D0390915E030E94C717F82ED0E030
:10375000CE01880F991F9C012C5F3E4F6901C31554
:10376000B0F081E0153308F080E0DF91CF911F9138
:103770000F91FF90EF90DF90CF90BF90AF909F9010
:103780008F907F906F905F904F903F900895FE01D3
:10379000E256FE4F8081F3019181892379F1F60190
:1037A00080A9282F2057330B590181A9E82FE05217
:1037B000FF0B4F01AA9C9001AB9C300D300D1124E2
:1037C000EE9FC001EF9F900D900D1124820F931F6B
:1037D0000E94D117082F609158037091590380916E
:1037E0005A03EF2C9401A501F20109950E942E1BAA
:1037F000462F672F282FCE010E94781BF2E0CF0EB4
:10380000D11C2196ACCF63ED7AE10C947D1B6EEE5A
:103810007AE10C947D1B65EA78E10C947D1B6AE1EA
:103820007BE10C947D1B8F929F92AF92BF92CF92BF
:10383000DF92EF92FF920F931F93CF93DF936C0170
:103840005B01FC01C0818BE0C89FC02D11241BE0EF
:103850001C0F812E163310F035E3832E60915B032D
:10386000669580915D0390915E030E94C717982E24
:10387000D0E0CE01880F991F9C012C5F3E4F79014B
:10388000C81588F081E0153308F080E0DF91CF9112
:103890001F910F91FF90EF90DF90CF90BF90AF906E
:1038A0009F908F900895FE01E256FE4F8081F601B1
:1038B00091818923C1F0F70121A92052330B40A93E
:1038C0004057550B609158037091590380915A03EA
:1038D000092DF50109950E942E1B462F672F282FD1
:1038E000CE010E94781BF2E0EF0EF11C2196C8CFAA
:1038F00066E97AE10C94131C64EB7AE10C94131CD6
:1039000064EB78E10C94131C69E07BE10C94131CCC
:10391000BF92CF92DF92EF92FF920F931F93CF93BC
:10392000DF937C018B01FC01C0818BE0C89FC02D1F
:1039300011249BE0D92EDC0EBD2CF5E3FD1510F40F
:1039400085E3B82E60915B036695669521E0620F72
:1039500008F46FEF80915D0390915E030E94C7179A
:10396000C82ED0E0CB1578F081E094E39D1508F4E3
:1039700080E0DF91CF911F910F91FF90EF90DF904A
:10398000CF90BF900895FE01E256FE4F8081F7016F
:103990009181892391F0609158037091590380912E
:1039A0005A032C2D4C2FF80109950E942E1B462FEF
:1039B000672F282FCE010E94781B2196D3CF60E27B
:1039C00078E10C94881C6BE478E10C94881C68E71F
:1039D00078E10C94881C6AE778E10C94881C63E811
:1039E00078E10C94881C6CE878E10C94881C63E7FF
:1039F00079E10C94881C66E979E10C94881C9F920B
:103A0000AF92BF92CF92DF92EF92FF920F931F93EC
:103A1000CF93DF9300D000D00F92CDB7DEB76C010B
:103A20005B01FC01F0818BE0F89F802D11248B83DA
:103A30009BE0F92EF80E9F2C85E38F1510F485E39B
:103A4000982E60915B036695669580915D039091D9
:103A50005E030E94C717182F80E4810F0E9401188F
:103A600080588983812F0E94011880588A83FB81A6
:103A7000EF2FF0E0FD83EC839C819915B0F081E09D
:103A8000E4E3EF1508F480E00F900F900F900F9093
:103A90000F90DF91CF911F910F91FF90EF90DF90EA
:103AA000CF90BF90AF909F900895EC81FD81E2563A
:103AB000FE4F8081F60191818923A9F0609158031E
:103AC0007091590380915A03E12E0C812A8149811A
:103AD000F50109950E942E1B462F672F282F8C81F8
:103AE0009D810E94781B8C819D8101969D838C8392
:103AF000C3CF6DED78E10C94FF1C6BE079E10C9481
:103B0000FF1C6AE379E10C94FF1C8F929F92AF92A5
:103B1000BF92CF92DF92EF92FF920F931F93CF93BA
:103B2000DF938C017B01FC01C0818BE0C89FC02D1D
:103B300011242BE0B22EBC0EAB2CF5E3FB1510F4D8
:103B400095E3A92E20915B0331E0230F08F42FEFBA
:103B500030E050E040E06FEF7FEF80E090E00E94C7
:103B600061316901D0E0922E8D2C2C2FCA1590F076
:103B700081E0F4E3FB1508F480E0DF91CF911F9121
:103B80000F91FF90EF90DF90CF90BF90AF909F90FC
:103B90008F900895FE01E256FE4F8081F8019181D9
:103BA000892319F1409161034150042E000C550BFB
:103BB00047FF1DC0892D982D60915B0321E0620FA6
:103BC00008F46FEF0E94C717AC0160915803709121
:103BD000590380915A03F70109950E942E1B462F25
:103BE000672F282FCE010E94781B2196BECFFA01A5
:103BF000EF59FC4F818982130AC0FA01EE0FFF1FB3
:103C0000EF59FC4F818D928D8C159D05A8F2415086
:103C10005109CECF67EA79E10C94851D6EEA79E10E
:103C20000C94851D2F923F924F925F926F927F92DC
:103C30008F929F92AF92BF92CF92DF92EF92FF92BC
:103C40000F931F93CF93DF93CDB7DEB72B970FB6AC
:103C5000F894DEBF0FBECDBF8E832B014B835C83F8
:103C6000FB01F0818BE0F89F802D11248983855F13
:103C70008A838D83863310F025E32D833091610391
:103C80003F839981892F90E09B878A87880F991FAE
:103C9000FC01EC5FFE4F6F01FE818F2F90E09C01D5
:103CA0002F5F3F4F39872887ED81FA85FE17F0F0A7
:103CB00081E02A81253308F080E02B960FB6F89436
:103CC000DEBF0FBECDBFDF91CF911F910F91FF904F
:103CD000EF90DF90CF90BF90AF909F908F907F90AC
:103CE0006F905F904F903F902F900895EA85FB85ED
:103CF000E256FE4F8081F2019181892301F12090EB
:103D0000580330905903288539852F593C4F390184
:103D10003E81398310E029813F812317C8F020912B
:103D20005A03129F112D1124B101812F0E942E1BC5
:103D3000462F672F282F8A859B850E94781B8A85AE
:103D40009B8501969B878A8792E0C90ED11CACCFD8
:103D5000F30181913F01F601A0A8A81ABB0881A830
:103D6000F3018781881A9908AA9C9001AB9C300DB9
:103D7000300D1124889CC001899C900D900D112458
:103D8000820F931F0E94D117082F60915B0321E0DF
:103D9000620F08F46FEFF301EE0FFF1FE156F340DF
:103DA000858996890E94C7177C019401A501B101FC
:103DB000812FEB81FC8109951B01182FF981FF5F91
:103DC000F983A9CFBC012091610331E0231B08F4E2
:103DD00020E044EB59E1822F0C94121EBC0144EB0D
:103DE00059E180E00C94121EBC012091610331E086
:103DF000231B08F420E04EEC59E1822F0C94121E94
:103E0000BC014EEC59E180E00C94121EBC012091E3
:103E1000610331E0231B08F420E046E05AE1822FE1
:103E20000C94121EBC0146E05AE180E00C94121E74
:103E3000BC012091610331E0231B08F420E048E33A
:103E40005AE1822F0C94121EBC0148E35AE180E033
:103E50000C94121EBC012091610331E0231B08F475
:103E600020E040E55AE1822F0C94121EBC0140E58F
:103E70005AE180E00C94121EBF92CF92DF92EF9233
:103E8000FF920F931F93CF93DF938C01FC01C081AE
:103E90008BE0C89FC02D11249BE0F92EFC0EBF2C97
:103EA000F5E3FF1510F485E3B82E60915803709187
:103EB000590380915A030E942E1BE62ED72EC82E3E
:103EC000D0E0CB1578F081E094E39F1508F480E012
:103ED000DF91CF911F910F91FF90EF90DF90CF90E6
:103EE000BF900895FE01E256FE4F8081F801918156
:103EF000892331F02C2D4E2D6D2DCE010E94781B83
:103F00002196DFCF8F929F92AF92BF92CF92DF9296
:103F1000EF92FF920F931F93CF93DF938C01FC01DD
:103F2000C0818BE0C89FC02D11249BE0F92EFC0EB0
:103F30008F2CF5E3FF1510F485E3882ED0915803FC
:103F4000A0905903B0905A036D2F7A2D8B2D0E94AB
:103F50002E1BE62ED72EC82E80915B036D2F680F87
:103F60007A2D8B2D0E942E1BB62EA72E982ED0E0D8
:103F7000C81590F081E094E39F1508F480E0DF918C
:103F8000CF911F910F91FF90EF90DF90CF90BF9056
:103F9000AF909F908F900895FE01E256FE4F908162
:103FA000F8018181892359F0292D4B2D6A2D90FD2F
:103FB00003C02C2D4E2D6D2DCE010E94781B219615
:103FC000D7CFBF92CF92DF92EF92FF920F931F93C2
:103FD000CF93DF938C01FC01C0818BE0C89FC02D83
:103FE00011243BE0F32EFC0EDF2CF5E3FF1510F45B
:103FF00025E3D22EC0905903B0905A0320915B0361
:1040000090E4E92E3E2D329F312D1124E32ED0E095
:10401000CD1578F081E034E33F1508F480E0DF91BE
:10402000CF911F910F91FF90EF90DF90CF90BF90B5
:104030000895FE01E256FE4F8081F80191818923A7
:10404000B9F0FE01EE0FFF1FEC5FFE4F81A98295D4
:104050008F70609158038E9D600D11247C2D8B2DE7
:104060000E942E1B462F672F282FCE010E94781BFF
:104070002196CECFBF92CF92DF92EF92FF920F9315
:104080001F93CF93DF938C01FC01C0818BE0C89F0D
:10409000C02D11245BE0F52EFC0EDF2CF5E3FF159F
:1040A00010F445E3D42EC0905903B0905A032091E8
:1040B0005B0330E4E32E3E2D329F312D1124E32E9D
:1040C000D0E0CD1578F081E034E33F1508F480E0CE
:1040D000DF91CF911F910F91FF90EF90DF90CF90E4
:1040E000BF900895FE01E256FE4F8081F801918154
:1040F0008923D9F0FE01EE0FFF1FEC5FFE4F80A970
:10410000E89EC001112425E0959587952A95E1F751
:1041100060915803680F7C2D8B2D0E942E1B462F1B
:10412000672F282FCE010E94781B2196CACFBF92FD
:10413000CF92DF92EF92FF920F931F93CF93DF9373
:104140008C01FC01C0818BE0C89FC02D11249BE035
:10415000F92EFC0EBF2CF5E3FF1510F485E3B82E05
:10416000E0905803D0915903D0905A0360915B03BB
:1041700066956695669580915D0390915E030E94B9
:10418000C7170E940118805887FD8195880F282F36
:104190003D2D239F212D11246E2D7D2F822F0E94D6
:1041A0002E1BE62ED72EC82ED0E0CB1578F081E05E
:1041B00034E33F1508F480E0DF91CF911F910F9118
:1041C000FF90EF90DF90CF90BF900895FE01E256F0
:1041D000FE4F8081F8019181892331F02C2D4E2DE5
:1041E0006D2DCE010E94781B2196DFCFBF92CF921A
:1041F000DF92EF92FF920F931F93CF93DF938C0187
:10420000FC01C0818BE0C89FC02D11249BE0F92EDA
:10421000FC0EBF2CF5E3FF1510F485E3B82ED0900B
:104220005903E0905A03D091580360915B0366955F
:104230006695669580915D0390915E030E94C71715
:104240000E940118805887FD8195880F682F3CE0F7
:10425000639F612D11246D0F7D2D8E2D0E94C4173B
:10426000E62ED72EC82ED0E0CB1578F081E094E36F
:104270009F1508F480E0DF91CF911F910F91FF907F
:10428000EF90DF90CF90BF900895FE01E256FE4F71
:104290008081F8019181892331F02C2D4E2D6D2DD7
:1042A000CE010E94781B2196DFCF1F93CF93DF931F
:1042B000EC01FC01E256FE4F80816823C9F00E94A8
:1042C0001032182F0E941032782F7F7720E8720F5B
:1042D00008F47FEF612F80915A030E942E1B462F16
:1042E000672F282FCE01DF91CF911F910C94781B5F
:1042F000DF91CF911F910895DF92EF92FF920F937C
:104300001F93CF93DF938C01FC01C281C11125C0A3
:1043100060915B0320E1620F08F46FEF80915D0311
:1043200090915E030E94C71765E070E00E943931EA
:10433000892B51F40E94103265E370E00E944D31E8
:10434000F80161810E9455218C2FDF91CF911F913F
:104350000F91FF90EF90DF900895C0818BE0C89F90
:10436000C02D11248BE0D82EDC0E8D2DF5E3FD152C
:1043700008F485E3D0E0E82EF12CCE15DF0534F00B
:10438000C1E0F4E3FD1500F7C0E0DECFF801618184
:10439000CE010E9455212196F0CFDF92EF92FF923D
:1043A0000F931F93CF93DF93EC01FC01E256FE4F76
:1043B0008081682381F1D090590300915A031091B4
:1043C0005803E12EF12C0E941032282FC7018C5483
:1043D0009F4F68E671E00E944D318E199F0997FD4D
:1043E000039695958795959587952370612F289FBE
:1043F000600D11247D2D802F0E942E1B462F672FCC
:10440000282FCE01DF91CF911F910F91FF90EF9058
:10441000DF900C94781BDF91CF911F910F91FF904B
:10442000EF90DF900895DF92EF92FF920F931F932A
:10443000CF93DF938C01FC01C281C11125C0609133
:104440005B0320E1620F08F46FEF80915D039091B0
:104450005E030E94C7176AE070E00E943931892B21
:1044600051F40E94103265E370E00E944D31F80172
:1044700061810E94CD218C2FDF91CF911F910F91EF
:10448000FF90EF90DF900895C0818BE0C89FC02D12
:1044900011248BE0D82EDC0E8D2DF5E3FD1508F4EC
:1044A00085E3D0E0E82EF12CCE15DF0534F0C1E035
:1044B000F4E3FD1500F7C0E0DECFF8016181CE0125
:1044C0000E94CD212196F0CFE0916902F0916A021D
:1044D0000994CF92DF92FF920F931F93CF93DF93B4
:1044E000CDB7DEB728970FB6F894DEBF0FBECDBFAD
:1044F000182F062FF42E0E940110882309F44CC0B7
:10450000FF2009F457C0AE014F5F5F4F602F812F2E
:104510000E94551BF82E0F2D10E08091FE02800F97
:10452000912F911D09976CF188E090E06C01C01A01
:10453000D10AB80161507D4FA6018FEF92E00E9431
:104540002D32B801695F7C4FA60187E093E00E949D
:104550002D32A601440F551FB801660F771F695E03
:104560007C4F87E193E00E942D32B801615F7C4F60
:10457000A6018FE093E00E942D3288E08F1980938E
:10458000FE021091FE02DE01119640E0242F210F61
:10459000F41212C02093FE0228960FB6F894DEBFE4
:1045A0000FBECDBFDF91CF911F910F91FF90DF9094
:1045B000CF900895F12CAFCF5D91852F90E030E042
:1045C000B90162507D4FFC01EE0FFF1FEC5CFE4F06
:1045D0000081FB010183880F991FFC01EC5FFE4FF6
:1045E00081A9FB018187518B220F331FF901E25012
:1045F000FD4F128E118E4F5FC9CFCF93C82F809180
:10460000E1018C1323C09091570393702091E20134
:1046100030E081E09217130609F480E08170809306
:10462000E00180915C039091DF01981739F080934D
:10463000DF0140E060E080E00E946422C83288F43C
:10464000EC2FF0E0EA52FD4C0C94803181E0E6CF93
:104650008091E001882359F040E060E080E00E9412
:10466000642280E004C08EED91E00E943C1F909196
:10467000DE019F5F9093DE0181110CC082E0809388
:10468000DD018091E001811105C0C11103C083E00B
:104690008093DD01CF9108958EED91E00E94821FFD
:1046A000E6CF8EED91E00E94E11FE1CF8EED91E02B
:1046B0000E943A20DCCF8EED91E00E949720D7CF68
:1046C0008EED91E00E94DF1CD2CF8EED91E00E9432
:1046D000E31CCDCF8EED91E00E94781CC8CF8EED0B
:1046E00091E00E947C1CC3CF8EED91E00E94031CE0
:1046F000BECF8EED91E00E94071CB9CF8EED91E008
:104700000E94E71CB4CF8EED91E00E94EB1CAFCF6E
:104710008EED91E00E94EF1CAACF8EED91E00E94F9
:10472000F31CA5CF8EED91E00E940B1CA0CF8EED67
:1047300091E00E94801C9BCF8EED91E00E94841C32
:1047400096CF8EED91E00E940F1C91CF8EED91E0FF
:104750000E94791D8CCF8EED91E00E947D1D87CF48
:104760008EED91E00E94811D82CF8EED91E00E943E
:1047700013227DCF8EED91E00E947C2178CF8EEDCB
:1047800091E00E94F62073CF8EED91E00E94F71C1D
:104790006ECF8EED91E00E94FB1C69CF8EED91E013
:1047A0000E940A1E64CF8EED91E00E940E1E5FCF24
:1047B0008EED91E00E94E21E5ACF8EED91E00E94B4
:1047C000EE1E55CF8EED91E00E94F41E50CF8EED7F
:1047D00091E00E94001F4BCF8EED91E00E94061FDA
:1047E00046CF8EED91E00E94121F41CF8EED91E0F9
:1047F0000E94181F3CCF8EED91E00E94241F37CFFE
:104800008EED91E00E942A1F32CF8EED91E00E9442
:10481000361F2DCF089508950E940A240C940B246E
:1048200008950895CF93DF93FC01C0818BE0C89F6A
:10483000C02D1124D5EFDC0FC63308F0C5E36C2F73
:104840008D2F0E9410246C2F8D2FDF91CF910C940F
:1048500011244F925F926F927F928F929F92AF92AC
:10486000BF92CF92DF92EF92FF92CF93DF9300D06F
:1048700000D0CDB7DEB78091270390912803A09197
:104880002903B0912A0389839A83AB83BC83BC013B
:10489000CD010E94292A6B017C010E94FA296093B4
:1048A0002703709328038093290390932A03A091F0
:1048B000FE02EEEFF2E02A2F30E088248A94982C52
:1048C000A12CB12C8C189D08AE08BF08A3132FC0D3
:1048D0002093FE0220912C0321113CC0209157030C
:1048E000A22FA370A983AA2319F0269526952983C0
:1048F0002091DD01223009F462C070F5211141C020
:104900001092DE0160935D0370935E0380935F03FA
:104910009093600389E2EEEFF2E0A1E6B3E001904C
:104920000D928A95E1F781E08093DD0117C0418DFA
:10493000528D2A01712C612C84149504A604B704AD
:1049400020F421503F5F3296C1CF4C0D5D1D528F38
:10495000418FF8CF1982CCCF2330E9F10F900F901F
:104960000F900F90DF91CF91FF90EF90DF90CF905D
:10497000BF90AF909F908F907F906F905F904F907F
:10498000089589810E94FD22B981BB2339F30E94D9
:104990000C248EED91E00F900F900F900F90DF910F
:1049A000CF91FF90EF90DF90CF90BF90AF909F900E
:1049B0008F907F906F905F904F900C94122439816C
:1049C0003093E1018091570383708093E2010E944C
:1049D000731B83E0A9CF80912B0381110E94381BA8
:1049E00010922B0380915D0390915E03A0915F0371
:1049F000B0916003BC01CD010E94292A603171058C
:104A00008105910508F4AACF1092DD01A7CFE091AE
:104A10006502F091660209951092610340E150E051
:104A20006FEF70E08AE793E00E9436321092FE0248
:104A300040E150E06FEF70E087E193E00E94363292
:104A40000E942A0F811104C00E94CF0F0E94401BB8
:104A50000E94301B809157038C7F11F40C94401BF3
:104A60000895CF93C82F882391F080912C03811152
:104A70000EC00E94FD221092E101809157038370C5
:104A80008093E2010E94731B83E08093DD01C09359
:104A90002C03CF910895E7E5F3E0908121E0922780
:104AA00090831092DD0190912B03982B90932B0310
:104AB000089581E00C944B25262F90915703937015
:104AC000A1F0882399F0883298F48F73880F880FAB
:104AD000909157039370892B809357031092DD01B7
:104AE00060912B03622B60932B03089581E0EECF3E
:104AF00087E2ECCF61E00C945C25682F809157032E
:104B0000869586958F5F883208F081E00C945C254D
:104B100081E00C947D25682F90915703969596958A
:104B20008FEF890F913009F487E20C945C2581E0C6
:104B30000C948B25922F20915703237071F0809352
:104B4000580360935903453B08F044EB40935A03E4
:104B500020912B03292B20932B030895282FE7E581
:104B6000F3E09181892F90E04381628108960C9453
:104B70009A2581E00C94AE25282FE7E5F3E08181AA
:104B8000438162818850990B0C949A2581E00C94A2
:104B9000BC25282FE7E5F3E0628130E1630F08F4DC
:104BA0006FEF8181438190E00C949A2581E00C9411
:104BB000C925282FE7E5F3E0628130E1631B08F4A3
:104BC00060E08181438190E00C949A2581E00C940F
:104BD000D925282FE7E5F3E0438130E1430F08F4BE
:104BE0004FEF8181628190E00C949A2581E00C94D2
:104BF000E925282FE7E5F3E0438130E1431B08F482
:104C000040E08181628190E00C949A2581E00C94CF
:104C1000F92580935B0380912B03862B80932B03D4
:104C20000895682F20915B0330E1230F08F42FEFE4
:104C3000822F0C94092681E00C941126682F209174
:104C40005B0330E1231B08F420E0822F0C9409263B
:104C500081E00C941E260895FC01EE0FFF1FE80F63
:104C6000F91FE657FC4F6183408322830895FF922A
:104C70000F931F93CF93DF93182F062FF42ED0E0BE
:104C8000C0E02F2D402F612FCE010E942C262196AF
:104C9000C533D105B1F7DF91CF911F910F91FF90EF
:104CA000089565E370E08AE893E00C94C826FA0161
:104CB00081110994FB01FDCF0F931F93CF938C01BA
:104CC000FB01C281CC2309F45DC00E94640E827294
:104CD000073DFCE51F0778F4033C9CE5190708F441
:104CE00052C0F801E45CFC45E331F10550F4E250B8
:104CF000FD4C0C9480310E351D4509F044C0C0E0D8
:104D000042C00E945925FBCF47E955E268E875E2A9
:104D10000E945726F4CF48E855E267E975E2F8CFDC
:104D200046EC55E269EB75E2F3CF49EB55E266ECF0
:104D300075E2EECF46EE55E266ED75E2E9CF46ED5F
:104D400055E266EE75E2E4CF46E056E266EF75E2C4
:104D5000DFCF46EF55E266E076E2DACF48E256E290
:104D60006BE176E2D5CF4BE156E268E276E2D0CF56
:104D700081E00E947A25C3CF85E0FBCF8DE0F9CF9B
:104D800082E1F7CFC1E08C2FCF911F910F91089551
:104D90009C01AB016A9A6EB16B7F7EB17460EFB714
:104DA000F894CA01880F991F840F951F820F931FD3
:104DB0008217930741F4EFBF8FE594E00197F1F775
:104DC00000C000000895D9014D919D0158E07EB9C1
:104DD000000000C047FF6EB9440F000000C000C0D3
:104DE00000C06EB900C05A9591F7E2CF0F931F93A0
:104DF000CF93DF93C42FD22FFC0182818823C9F087
:104E000040932F030E94EE2990932E0380932D034D
:104E100080E28C0F883008F050C0C77081E001C07C
:104E2000880FCA95EAF7DF91CF911F910F910C94EB
:104E3000430510912F03141335C080912D039091D9
:104E40002E030E941A2A883C910560F5C0E2CD0F1E
:104E50001D17B9F080E2810F883040F4177081E0AF
:104E600001C0880F1A95EAF70E944A05C83048F435
:104E700081E09D2F977001C0880F9A95EAF70E94F4
:104E80004305802F0E943B05C830B8F4D77081E0FD
:104E900001C0880FDA95EAF7DF91CF911F910F914A
:104EA0000C944A0580E28C0F883038F4C77081E09A
:104EB00001C0880FCA95EAF7EFCFDF91CF911F911C
:104EC0000F9108950F939C01CB01243F4CE53407CB
:104ED000A1F190F4293DFCE53F0749F12A3D4CE55D
:104EE0003407E9F1283D3C45C1F0FC01828188236B
:104EF000E1F110922F0319C0263FFCE53F0719F19D
:104F0000273F4CE5340729F1253F3C4571F707E27F
:104F100025EE44EE65EF7CE505C006E221EE41EEAC
:104F200068ED7CE50E94F62680E00F91089507E287
:104F300025EE45EE69ED7CE5F5CF06E221EE40EE8B
:104F400064EF7CE5EFCF06E221EE42EE66EF7CE512
:104F5000E9CF07E225EE46EE67EF7CE5E3CF08E216
:104F600021E045EE6AED7CE5DDCF81E0DECFCF9339
:104F7000DF93EC01FB018281882309F4CEC0C631A6
:104F8000FCE5DF07E0F4C2309CE5D907F0F00E94B1
:104F90003D0F9093460380934503C631ECE5DE0751
:104FA00020F5C230FCE5DF0798F48091450390912D
:104FB00046030E944B0F0E94FC0780E006C09E0142
:104FC0002B5F3C452930310510F3DF91CF910895D7
:104FD000FE01E350FC45809145038160E331F1051A
:104FE000B0F4EF5EFC4C0C948031CE018B5F9C459D
:104FF0000997D8F6FE01EC5FFC45E830F10590F426
:10500000EC5DFC4C0C948031809145038260809370
:105010004503CBCF809145038460F9CF8091450350
:105020008860F5CF80914603816080934603BDCFB1
:10503000809146038260F9CF809145038061E7CF7C
:10504000809145038062E3CF809145038064DFCF88
:105050000E94FC07809145038068D9CF8091450369
:105060008C60D5CF809146038360DFCF809145036C
:105070008E7FCDCF809145038D7FC9CF8091450331
:105080008B7FC5CF80914503877FC1CF8091460339
:105090008E7FCBCF809146038D7FC7CF8091450314
:1050A0008F7EB5CF809145038F7DB1CF8091450331
:1050B0008F7BADCF0E94FC07809145038F77A7CFF0
:1050C00080914503837FA3CF809146038C7FADCF32
:1050D0008091450382FB992790F921E0922790FB6C
:1050E00082F990FB83F993CF80914603982F909596
:1050F00091708E7F892B90FB81F997CF0E94FC07DE
:1051000090914503892F97FB87F9805880CF81E0E4
:105110000E94D10F4ACF80E0FBCF81E056CFCF93E2
:10512000DF93EB0186319C4511F50E94640E9A8154
:10513000992399F08A7A91E009F490E090933003F2
:10514000811109C089E20E941E0E0E94B70E80E004
:10515000DF91CF91089585E3F6CF809130038111DF
:1051600004C089E20E94250EF0CF85E3FBCF81E0E9
:10517000EFCF90933603809335030895E091350384
:10518000F0913603309721F00190F081E02D0994E1
:1051900080E00895E0913503F0913603309721F0D7
:1051A0000280F381E02D09940895DC01E09135033C
:1051B000F0913603309739F082E08C930480F581CA
:1051C000E02DCD01099408952091330330913403EB
:1051D0002817390771F09093340380933303E091DB
:1051E0003503F0913603309721F00680F781E02DEA
:1051F000099408952091310330913203281739071B
:1052000071F09093320380933103E0913503F09174
:105210003603309721F00084F185E02D099408953C
:10522000AC019C012E5F3F4F485F5F4F80E0241729
:10523000350709F40895F90191919F019923B9F374
:105240008F5FF5CF9C01662351F0FC013296285FF9
:105250003F4F8191861729F0E217F307D1F780E0DD
:10526000089581E008959C01FC0132968FEF90E053
:105270004191461751F08F3F19F4411101C0892F18
:105280009F5F9630A9F78F3F09F40895280F311DCD
:1052900087FD3A95F901628308959C01FC013296DD
:1052A000285F3F4F8191861303C0DF0111971C9245
:1052B000E217F307B9F708950C9433290C944D299C
:1052C000FC01329686E0DF011D928A95E9F7089588
:1052D00008950895089580913104843061F10E9409
:1052E000130380E00E94EB0381E00E9431251092BD
:1052F000370388E190E020E40FB6F894A8958093F6
:1053000060000FBE2093600083B7817F846083BFFD
:1053100083B7816083BF7894889583B78E7F83BF7E
:105320000FB6F894A8958091600088618093600022
:10533000109260000FBE08950895CF930E946929CE
:105340000E9410140E949C29C0E08C2F0E942F13F1
:10535000892B31F4CF5FC430C1F780E0CF9108953D
:1053600081E0FCCF08950E94FC070E94BE280E94A5
:10537000EB0380E00E9431250C9418031F921FB6A6
:105380001F9211248F939F93AF93BF938091370304
:10539000811113C08091290490912A04A0912B04BB
:1053A000B0912C044196A11DB11D809329049093C6
:1053B0002A04A0932B04B0932C04BF91AF919F912A
:1053C0008F911F901FBE1F90189582E084BD93E0BF
:1053D00095BD9AEF97BD80936E0008952FB7F8940E
:1053E0008091290490912A04A0912B04B0912C045F
:1053F0002FBF0895CF93DF9300D000D0CDB7DEB795
:105400008FB7F8942091290430912A0440912B04FD
:1054100050912C0429833A834B835C838FBF69812D
:105420007A818B819C810F900F900F900F90DF916C
:10543000CF9108959C014FB7F894809129049091E1
:105440002A04A0912B04B0912C044FBF821B930B14
:1054500008950F931F93CF93DF9300D000D0CDB763
:10546000DEB7462F572FBC012FB7F894809129043F
:1054700090912A04A0912B04B0912C042FBF8C0191
:105480009D01041B150B260B370BC901B8010F90AA
:105490000F900F900F90DF91CF911F910F91089572
:1054A00078941F921FB61F9211248F939F93AF93EE
:1054B000BF938091290490912A04A0912B04B0916C
:1054C0002C040196A11DB11D8093290490932A04F8
:1054D000A0932B04B0932C04BF91AF919F918F9117
:1054E0001F901FBE1F90189581E08093E00080E21E
:1054F0008093D8001092C9008FE19EE40197F1F7E4
:1055000000C0000087E090EBDC0180933A049093A8
:105510003B04A0933C04B0933D0488E19CE00FB6AB
:10552000F894A895809360000FBE90936000FFCF21
:1055300090936F0280936E020895809143030895C3
:1055400090913104943031F580933803609339039E
:1055500070933A0382E08093E9008FEF9091E80026
:10556000815095FD06C095ED9A95F1F700008111E7
:10557000F5CF8091E80085FF0DC050E040E063E08A
:1055800070E088E393E00E94AE2C8091E8008E7773
:105590008093E8000895BC0184E00C94A02ABC012B
:1055A00083E00C94A02A22E02093E9002FEF3091B1
:1055B000E800215035FD06C035ED3A95F1F70000C1
:1055C0002111F5CF2091E80025FF0BC050E040E00D
:1055D00066E070E00E94AE2C8091E8008E778093A8
:1055E000E8000895CF93DF93D82FC92F81E08093EF
:1055F000E9008FEF9091E800815095FD06C095ED90
:105600009A95F1F700008111F5CF8091E80085FFB0
:1056100016C050E040E068E070E08D2F9C2F0E94A3
:10562000AE2C8091E8008E778093E80088E0ED2F23
:10563000FC2FABE3B3E001900D928A95E1F7DF9187
:10564000CF91089580913004811109C00E94362EB7
:105650000E94932E8091E20084608093E20008957E
:1056600010923004089508950895089542E061EC81
:1056700081E00E94B22D42E261EC82E00C94B22DF6
:1056800080913304893089F148F4823009F49DC057
:10569000833009F458C0813041F008958A3009F40C
:1056A00084C08B3009F46AC0089580913204813A35
:1056B00009F048C08091E800877F8093E8008091DE
:1056C000360490913704892B61F468E08BE393E012
:1056D00070E00E94FD2C8091E8008B778093E800B9
:1056E000089560E090E080E0F3CF80913204813251
:1056F00049F58091360490913704029718F580910E
:10570000E800877F8093E8008091E80082FF16C060
:105710009091F3008091F200029729F48091F100BA
:105720008B7F813021F48091F1008093430380913D
:10573000E8008B778093E8000C94E62D809131048B
:105740008111E2CF089580913204813AD9F7809196
:10575000360490913704892BA9F78091E800877F60
:105760008093E8008091E80080FFFCCF8091ED01FC
:105770008093F1008091E8008E77DCCF8091320435
:10578000813201F78091360490913704892BD1F64C
:105790008091E800877F8093E8000E94E62D809149
:1057A00034048093ED010C94FC0780913204813223
:1057B00049F68091E800877F8093E8000E94E62DFB
:1057C0008091350480934403089580913204813A96
:1057D00009F0B8CF8091E800877F8093E80080913E
:1057E000E80080FFFCCF80914403C2CF84B7877F5D
:1057F00084BF0FB6F894A89580916000886180936B
:105800006000109260000FBE80E890E00FB6F89440
:1058100080936100909361000FBE0C94F70F0E947B
:10582000362E0E94932EE2EEF0E080818460808329
:1058300078940E941F310E940B1083EE91E00C942B
:10584000B92880913104853031F48091310485305C
:1058500021F00E94B3290C9411100E946B298091B1
:105860002F04882391F30E949D29882371F30E94BD
:10587000982C0E94FC07E9CF0C943E2CFC01CB0134
:10588000DA012F2F332723303105D1F070F4213086
:10589000310509F43EC02230310569F48BE390E014
:1058A0002CE834E02D933C93089521323105E9F042
:1058B0002232310521F190E080E030E020E0F2CFAB
:1058C000CF019927E13059F08230910559F0E8E88D
:1058D000F4E0892B81F7849190E09F01E3CFE0E72A
:1058E000F4E0F9CFECE4F4E0F6CF892BB9F06130C5
:1058F000710509F789E090E027EB34E0D3CF892BDD
:1059000091F061307105B9F68BE790E029ED34E054
:10591000C9CF82E190E027EC34E0C4CF89E090E089
:105920002EE934E0BFCF80E490E024E535E0BACF43
:1059300080E189BD82E189BD09B400FEFDCF80917F
:10594000D8008F7D8093D8008091E00082608093A2
:10595000E0008091E00081FDFCCF0895AF92BF92FE
:10596000CF92DF92FF920F931F93CF93DF936C013F
:10597000EB018A010E94052EF82E811123C001152A
:10598000110539F0F80180819181C81BD90BC80E2F
:10599000D91EB12CA12C2097A9F08091E80085FD9B
:1059A00022C08091E8008E778093E80001151105F0
:1059B000A1F0F801808191818A0D9B1D91838083E4
:1059C00085E0F82E8F2DDF91CF911F910F91FF90E1
:1059D000DF90CF90BF90AF9008950E94052E88234E
:1059E000D1F2F82EEFCFF60181916F018093F10093
:1059F0002197FFEFAF1ABF0ACECFFC01CB01209158
:105A00003804309139042617370790F0009729F4AD
:105A10002091E8002E772093E80040E0009751F4B1
:105A2000411108C08091E80082FF31C080E00895F4
:105A3000C901F3CF209131042223A9F12530A9F126
:105A40002091E80023FD2DC02091E80022FDEACF3F
:105A50002091E80020FFE2CF3091F3002091F20086
:105A6000009719F02830310558F041E02830310511
:105A700009F040E02091E8002E772093E800CECF97
:105A800041914093F10001972F5F3F4FE9CF809103
:105A90003104882341F0853041F08091E80083FF94
:105AA000C1CF81E0089582E0089583E00895FC016C
:105AB000CB0120913804309139042617370790F034
:105AC000009729F42091E8002E772093E80040E029
:105AD000009751F4411108C08091E80082FF32C064
