:100000000C94F2020C9439030C9439030C943903C8
:100010000C9439030C9439030C9439030C94390370
:100020000C9439030C9439030C941E2F0C94F02F6C
:100030000C943B2A0C9439030C9439030C94390327
:100040000C9439030C9439030C9439030C94390340
:100050000C9439030C94B02A0C9439030C94390392
:100060000C9439030C9439030C9439030C94390320
:100070000C9439030C9439030C9439030C94390310
:100080000C9439030C9439030C9439030C94390300
:100090000C9439030C9439030C9439030C943903F0
:1000A0000C9439030C9439030C943903DE05DE05F6
:1000B000100610065D067B069C079C0786061B073C
:1000C0002C072C078C079C079C0795073C083C08CD
:1000D0004E084E0845084E084E084E083C083C089D
:1000E0004A084E084E084A085D3084307C3184301E
:1000F0007C31D030F3307C314A3159312B0014003F
:100100001A000800150017001C0018000C0012004F
:1001100013002A00290004001600070009000A0045
:100120000B000D000E000F0033003400E1001D0035
:100130001B000600190005001100100036003700F2
:1001400038002800C35CE300E000E20011502C00FE
:10015000000002545000510052004F00340036009D
:10016000370013001C005200510009000A0006006D
:1001700015000F0004611264086818620C0050003A
:100180004F0007000B7217781174167133001400BA
:100190000D000E001B0000000000050010001A00FA
:1001A00019001D000000000000002B4429420554E6
:1001B00000002C002A00000000000000350036007E
:1001C0003700000000000000000025025700240056
:1001D000250026005061516452684F620000000003
:1001E00000002E0027002100220023002F003000F5
:1001F0003100650000000000000038002D001E00E6
:100200001F00200000000000000001000100280085
:1002100000000100010000000000000000000000DC
:10022000ED0000000000000000000000F100F200FE
:100230004A004D000000EF00EE00F000000000005A
:100240000000F100FF00FE00FD004B000000000078
:1002500000000000000000000000FC00FA00F900AF
:10026000FC004E00000000000000000000001150E3
:10027000000000000000000000000000105000001E
:100280000000000000000000000000007C007D0075
:100290007E007A00165005541250135000000000E2
:1002A000000000005000510052004F00000000000C
:1002B0000000000000000000000000000000AA0094
:1002C000A900A8000000000000000000000011507C
:1002D00000000000000000000000000034023602B0
:1002E000370225020000000000002E023802220220
:1002F00024022E0035022D002302340000000000ED
:10030000000038001E021F022002210235002D02CB
:100310003100310200000000000033022F003000E5
:100320002F023002000000000000145012500100A3
:10033000000026022702000000000000005C015CB3
:10034000C35C145C00000000000000003E003F00A1
:1003500040004100C45CC65CC85CCA5CCC5C000068
:10036000000000003A003B003C003D00C55CC75C5B
:10037000C95CCB5CCD5C0000000000004200430083
:100380004400450000000000000000000000115083
:10039000000000000000000000000000000101015A
:1003A0000101010101010202020202020202020332
:1003B0000303030303030304040404040404050502
:1003C00005050506060606060707070707080808C5
:1003D00008090909090A0A0A0B0B0B0C0C0C0D0D74
:1003E0000D0E0E0E0F0F0F1010111111121213130C
:1003F0001414151516161717181819191A1A1B1B85
:100400001C1D1D1E1E1F20202122222324242526E0
:1004100026272829292A2B2C2D2D2E2F3031323218
:10042000333435363738393A3B3C3D3E3F40414224
:10043000434445464748494A4C4D4E4F505153540A
:10044000555658595A5B5D5E5F61626465666869BE
:100450006B6C6D6F7072737577787A7B7D7E80823E
:10046000838587888A8C8E8F91939596989A9C9E87
:10047000A0A2A3A5A7A9ABADAFB1B3B5B7BABCBE97
:10048000C0C2C4C6C9CBCDCFD1D4D6D8DBDDDFE264
:10049000E4E7E9EBEEF0F3F5F8FAFDFF22034200A2
:1004A0004D0034003000200048006F0074007300DD
:1004B00077006100700020005200470042000000F9
:1004C00016034B005000520065007000750062007A
:1004D0006C006900630000000403090409023B008A
:1004E000020100A0FA090400000103010100092132
:1004F000110100012240000705810308000A0904D8
:1005000001000103000000092111010001227B000C
:100510000705820320000A120100020000000850B3
:100520004B303401000102000105010902A10185DF
:10053000020901A1000509190129081500250195E5
:1005400008750181020501093009311581257F9562
:10055000027508810609381581257F950175088186
:1005600006050C0A38021581257F9501750881065C
:10057000C0C005010980A101850319012AB7001532
:100580000126B700950175108100C0050C0901A175
:1005900001850419012AA002150126A00295017502
:1005A000108100C005010906A101050719E029E72E
:1005B00015002501950875018102950175088101D5
:1005C0000507190029FF150026FF0095067508810B
:1005D0000005081901290595057501910295017518
:1005E000039101C011241FBECFEFDAE0DEBFCDBF03
:1005F00004B603FE27C08091400490914104A0916D
:100600004204B09143048730904BA740B04BD1F4E3
:10061000109240041092410410924204109243043C
:1006200014BE84B7877F84BF0FB6F894A8958091D5
:100630006000886180936000109260000FBEE0E06F
:10064000F8E3099512E0A0E0B1E0EEE0F6E602C0C2
:1006500005900D92A437B107D9F724E0A4E7B2E0E2
:1006600001C01D92A034B207E1F70E9449140C9416
:1006700005330C94000081E00E942D250C94FD2987
:1006800080E00E942D250C94E32981E0089581E00B
:1006900008950C94470308950C944B031F93CF9334
:1006A000DF9300D000D01F92CDB7DEB749835A83C5
:1006B0006B833091760289819A81311114C066234F
:1006C00059F0222349F00E94E009182F682F8981F0
:1006D0009A810E94890903C00E94B409182F698178
:1006E0007A81812F04C00E94E00969817A810F908C
:1006F0000F900F900F900F90DF91CF911F910C945E
:100700008610FC01262F4081518162817381848192
:100710000C944E0381E00895CF93DF93EC0160E0E9
:100720000E948103BE01DF91CF910C944C030E9483
:10073000B3120E9411040E94FF240C94F0120C9436
:10074000EC1208950E942A080E94A1032FEF84E36F
:100750009CE0215080409040E1F700C000000C94E4
:10076000D62A0F931F93CF93DF938C0161E00E94F1
:100770008103EC01B8010E944903882309F444C0B5
:10078000B801CE010E9491278823F1F1B801CE0172
:100790000E94E3278823C1F1B801CE010E940E29EF
:1007A000882391F1B801CE010E945726882361F178
:1007B000F8018281882309F1CB358DE5D807C1F096
:1007C00050F4C115FCE5DF0781F0CF3DDC45A9F40D
:1007D0000E947B0F19C0CC35EDE5DE0761F0CD3509
:1007E000DD4559F40E94FF0D08C00E94A2030CC011
:1007F0000E94080E02C00E940B0EC801DF91CF912B
:100800001F910F910C94450380E0DF91CF911F91D0
:100810000F91089508950C940A0481E008950C94B2
:100820000D040895CF93C82F0E940B048C2F0E94B3
:100830000F04CF910895CF93DF93CDB7DEB72B97F9
:100840000FB6F894DEBF0FBECDBF4F8358876987C0
:100850007A878B8761110E942E0E9E012F5F3F4F7A
:1008600086E0F90111928A95E9F785E0FE01379655
:10087000D90101900D928A95E1F789819A814C8185
:100880005D81452B31F09F3F31F491E08F3F19F4AA
:1008900003C091E001C090E090FF09C049815A81F6
:1008A0006B817C818D819E810E942E0D05C0C901C6
:1008B0000E948A038111F2CF2B960FB6F894DEBF07
:1008C0000FBECDBFDF91CF910895FC018081918152
:1008D0000E94220A0895CF93882309F4A4C0C82F48
:1008E0008238C1F40E94442981FD9DC069E3809152
:1008F000D3019091D4010E94D7290E94600E2FEF5E
:1009000081EE94E0215080409040E1F700C000006B
:1009100069E319C0833801F50E94442980FD83C032
:1009200063E58091D3019091D4010E94D7290E9460
:10093000600E2FEF81EE94E0215080409040E1F76F
:1009400000C0000063E58091D3019091D4010E9422
:10095000D929CF910C94600E8438C1F40E944429A7
:1009600082FD61C067E48091D3019091D4010E941F
:10097000D7290E94600E2FEF81EE94E02150804035
:100980009040E1F700C0000067E4DDCF8CEF8C0FF2
:10099000813AD0F46C2F8091D3019091D4010E94C0
:1009A000A129882349F06C2F8091D3019091D40123
:1009B0000E94D9290E94600E6C2F8091D3019091E2
:1009C000D4010E94D729C5CF80E28C0F883048F42B
:1009D000C77081E001C0880FCA95EAF70E94110E26
:1009E000B8CFEBE5EC0FE33040F4F0E0E15EFD4F13
:1009F000808190E0CF910C946929E8E5EC0FE73114
:100A000050F4F0E0EE0FFF1FEF50FE4F8081918118
:100A1000CF910C947F29CD3E30F08C2F0E94D614BC
:100A2000CF910C94A815CF910895882309F464C040
:100A3000823879F40E94442981FF5EC069E3809185
:100A4000D3019091D4010E94D7290E94600E69E3DE
:100A500010C08338B1F40E94442980FF4DC063E583
:100A60008091D3019091D4010E94D7290E94600EF9
:100A700063E58091D3019091D4010E94D9290C940F
:100A8000600E843879F40E94442982FF35C067E4FF
:100A90008091D3019091D4010E94D7290E94600EC9
:100AA00067E4E7CF9CEF980F913A10F4682FE1CFFD
:100AB00090E2980F983050F4877091E001C0990F40
:100AC0008A95EAF7892F0E94170ED9CF9BE5980FD8
:100AD000933020F480E090E00C94692998E5980F19
:100AE000973120F480E090E00C947F298D3E20F037
:100AF0000E9431150C94A81508951F93CF93DF938E
:100B0000182FEB010E946B04209741F08FE99FE0C2
:100B10000197F1F700C000002197F6CF812FDF91F8
:100B2000CF911F910C941505893319F060E070E0A6
:100B300002C060E570E00C947D05882321F00E94DE
:100B4000110E0C94600E0895882321F00E94170E58
:100B50000C94600E0895CF92DF92EF92FF920F9364
:100B60001F93CF93DF937C01062FC72FFC01D28107
:100B7000158112951F700E94E60D882399F0DD23E0
:100B800089F08C2F807F803421F080E2800F8830C4
:100B900048F082E00E94B00E0E94E60D91E0D82E4F
:100BA000D92601C0D12CCC2EC2948FE0C8228C2D26
:100BB00090E0FC01EA5AFF4F0C94F7318C2F807FB4
:100BC000CF70882311F0C295C07FDD2399F0CC232C
:100BD00009F48DC180E2800F883010F0011104C04B
:100BE0008C2F0E94110E03C08C2F0E94210E0E9498
:100BF000600E7DC1802F0E941505CC2309F49CC195
:100C000080E2800F883010F0011104C08C2F0E9408
:100C1000170E03C08C2F0E94270E0E94600E8CC1FD
:100C20008C2F807FCF70803211F0C295C07F00235F
:100C300019F00130C9F022C0DD2371F0112341F019
:100C4000113031F40E94410E8C2B0E94490E74C168
:100C50000E94410E8C2B1DC0112319F0113009F494
:100C60006BC10E94560E25C0DD2321F0163008F01E
:100C700063C10EC0153008F05FC11BC0DD2361F0F9
:100C8000112331F0F701858180FF31C18F70858399
:100C90008C2F0E949D0550C1112359F0093309F092
:100CA00037C1FFEF27EE83E0F15020408040E1F7AD
:100CB0002DC18C2F0E94A4053FC18C2F869586954F
:100CC000837019F0813061F037C1DD2321F0802F6E
:100CD0009C2F937002C080E090E00E94692934C18B
:100CE000DD2321F0802F9C2F937002C080E090E0E4
:100CF0000E947F2929C1802FDD2319F00E94D6147C
:100D000002C00E9431150E94A8151EC18C2F83704D
:100D100009F045C0D11114C1402F42954695477046
:100D2000440F440F602F6F70862F90E0A0E0B0E07A
:100D3000042E04C0880F991FAA1FBB1F0A94D2F764
:100D400004FF10C00FE010E020E030E004C0000F0E
:100D5000111F221F331F4A95D2F700951095209539
:100D6000309503C000E010E09801C695C695C370A9
:100D7000BC01CD01602B712B822B932BC23049F02B
:100D800058F4C13019F00E949F08DAC00E948D0803
:100D9000D7C00E94B108D4C00E948B08D1C0DD2307
:100DA00019F08C2F817001C08695882309F4C8C082
:100DB000402F429546954770440F440F602F6F7047
:100DC000862F90E0A0E0B0E0042E04C0880F991FA9
:100DD000AA1FBB1F0A94D2F704FF10C00FE010E057
:100DE00020E030E004C0000F111F221F331F4A957E
:100DF000D2F7009510952095309503C000E010E0E3
:100E00009801C695C695C370BC01CD01602B712BAE
:100E1000822B932BC23049F058F4C13019F00E9454
:100E200064098EC00E9452098BC00E94760988C056
:100E30000E94C50885C0CF70DD2339F08C2F0E9439
:100E4000EB08802F0E949D057BC0802F0E94A40587
:100E50008C2F0E940C0974C0023F01F128F4003F5E
:100E600041F0013FA1F03FC0033FF9F0043F39F1E9
:100E70003AC0DD2341F0153008F05EC08C2F8F7131
:100E80000E94310959C0163008F056C0F7CFDD2353
:100E900039F08C2F8F710E94EB084EC0DD23C9F30F
:100EA0008C2F8F710E940C0947C0DD2329F08C2FF5
:100EB0008F710E94D60840C00E94D1083DC0DD233A
:100EC00049F0CF718C2F0E94EB0863E08C2F0E94B9
:100ED000950E32C081E00E94B00E123068F182E0BF
:100EE0000E94B00E29C0DD2331F0112391F2802F32
:100EF0000E946B0421C0112399F2093349F49FEF3A
:100F0000E7EEF3E09150E040F040E1F700C0000070
:100F1000802F0E94150510C04C2F4F70602FC70105
:100F20000E9482100E94500A0FC04C2F4F70602FF9
:100F3000C7010E94851008C088EF8C0D843020F412
:100F40000E9444290E941204DD20C9F00E94E20D93
:100F500080FD15C0F70112820E94DC0D0E94EB0893
:100F6000C7010E94E0070E94DC0DDF91CF911F9125
:100F70000F91FF90EF90DF90CF900C940C09DF91D0
:100F8000CF911F910F91FF90EF90DF90CF90089538
:100F90000F931F93CF93DF93EC01688179818A814E
:100FA0000E942D0A8C010E9488090E947908B801CC
:100FB000CE010E94AB05DF91CF911F910F91089553
:100FC000CF93DF93EC01988189812B813C81232B86
:100FD00031F08F3F31F481E09F3F19F403C081E08D
:100FE00001C080E080FD19C0CE010E94B1038111D3
:100FF0000CC00E94E60D882381F08A81882369F065
:1010000082E0DF91CF910C94B00ECE010E94C80710
:10101000CE01DF91CF910C948C03DF91CF91089595
:1010200080E090E00E94692980E090E00E947F29A2
:101030000E942E0E0E943E0E0E94600E0E94D91643
:101040000C94A8158091D3019091D4010E94DB29C2
:101050000C9410080E941E0E0C942208E92FE295B1
:10106000EF704E2F50E0FA013297EE30F105B0F4F8
:10107000EA59FF4F0C94F731803F91F018F4883E05
:1010800068F40EC0843F51F40BC0883E48F0813FA5
:1010900029F406C093FB882780F9089580E008951D
:1010A00081E00895FC01808191810E94220A0E94C2
:1010B0002E080895CF93DF9300D000D01F92CDB7B4
:1010C000DEB70F900F900F900F900F90DF91CF91A0
:1010D0000895CF93DF9300D000D000D0CDB7DEB716
:1010E00026960FB6F894DEBF0FBECDBFDF91CF912D
:1010F0000895089508950C947A080C947B080E9432
:101100007D086093990270939A0280939B0290935A
:101110009C020C9410080C947F080F931F9300916D
:10112000990210919A0220919B0230919C02602BAF
:10113000712B822B932B1F910F910C947F080F938F
:101140001F930091990210919A0220919B02309175
:101150009C0260237123822393231F910F910C948F
:101160007F080F931F930091990210919A0220918A
:101170009B0230919C0260277127822793271F9141
:101180000F910C947F080C947A080E94C308609316
:1011900095027093960280939702909398020C9414
:1011A000100860E070E0CB010C94C5080F931F930A
:1011B00041E050E060E070E08A019B0104C0000F54
:1011C000111F221F331F8A95D2F7C901B8011F9141
:1011D0000F910C94C5080F931F9341E050E060E01D
:1011E00070E004C0440F551F661F771F8A95D2F721
:1011F0008091950290919602A0919702B0919802E9
:101200008A019B01082B192B2A2B3B2BC901B80102
:101210001F910F910C94C5080F931F9341E050E06C
:1012200060E070E004C0440F551F661F771F8A9569
:10123000D2F7409550956095709580919502909168
:101240009602A0919702B09198028A019B0108230F
:1012500019232A233B23C901B8011F910F910C9434
:10126000C5080F931F9341E050E060E070E004C0B8
:10127000440F551F661F771F8A95D2F780919502FC
:1012800090919602A0919702B09198028A019B01D9
:10129000082719272A273B27C901B8011F910F9159
:1012A0000C94C5080F931F9300919502109196021C
:1012B0002091970230919802602B712B822B932BF7
:1012C0001F910F910C94C5080F931F9300919502E5
:1012D0001091960220919702309198026023712319
:1012E000822393231F910F910C94C5080F931F9392
:1012F00000919502109196022091970230919802E8
:1013000060277127822793271F910F910C94C5089E
:1013100008952CE0929F800D1124E82FE695E69524
:10132000E695877051E001C0550F8A95EAF785E090
:10133000E89FF0011124E958FD4F20E030E070E013
:101340004081CB01022E02C0969587950A94E2F760
:101350008170819584278523842781932F5F3F4F58
:101360002530310569F708952CE0929F800D1124F6
:10137000682F669566956695982F977085E0689FAB
:10138000B001112440E050E080E0FB01E40FF51FC4
:10139000E958FD4F208130E0092E02C0369527958F
:1013A0000A94E2F721703327042E01C0220F0A9419
:1013B000EAF7822B4F5F5F4F4530510531F70895B3
:1013C000BF92CF92DF92EF92FF920F931F93CF9332
:1013D000DF938C01C0909502D0909602E090970226
:1013E000F09098028091990290919A02A0919B02AC
:1013F000B0919C02C82AD92AEA2AFB2ACFE1D0E080
:10140000D701C6010C2E04C0B695A7959795879570
:101410000A94D2F780FD04C0219790F7B12C07C041
:10142000BC2EB8018C2F0E94BD110197A9F38B2D02
:10143000DF91CF911F910F91FF90EF90DF90CF90B0
:10144000BF900895CF93DF93EC010E94E009BE01A5
:101450000E94BD11DF91CF9108951F93CF93DF9329
:10146000EB0190917602992321F0CB010E94220A90
:1014700013C0882349F0CB010E94E009182F682F80
:10148000CE010E94890904C0CB010E94B409182F23
:10149000BE01812F0E94BD11DF91CF911F91089550
:1014A000EF92FF920F931F93CF93DF938C01892BC1
:1014B00009F46CC0F12CEE24E394E8012196F801C4
:1014C0008491843740F4843008F051C0813081F039
:1014D000823019F15BC0853709F444C0A8F19CE75C
:1014E000980F903708F052C08F770E94150541C0C1
:1014F0000E5F1F4FFE01849190E2980F983050F4D8
:101500008770FE2D01C0FF0F8A95EAF78F2F0E948A
:10151000310E14C00E946B042DC00E5F1F4FFE01E0
:10152000849190E2980F983060F48770FE2D01C08E
:10153000FF0F8A95EAF78F2F0E94370E0E94600EE8
:1015400019C00E94150516C00E5F1F4FFE01C49101
:10155000CC2381F08FE99FE00197F1F700C00000F4
:10156000C150F6CF0E5F1F4FFE01F49003C00E94E2
:101570006B048E018F2D882309F49FCFEFE9FFE0E4
:101580003197F1F700C000008150F5CFDF91CF9186
:101590001F910F91FF90EF9008951F93CF93DF93CA
:1015A000C0919D0216E080919E02C81799F0D0E08C
:1015B0001C9FF0011D9FF00D1124E156FD4F40814D
:1015C000518162817381848195810E94690821968D
:1015D000C770E9CFDF91CF911F9108954091CF025D
:1015E0005091D0026091D1027091D2028091D302C9
:1015F0009091D4020C9469080F931F93CF93DF93BB
:101600008091D40282958F7009F05DC08091D102E3
:10161000882309F458C080919D0210919E02609128
:10162000CF027091D002C091D202D091D30291E04A
:101630006F3F09F090E0292F06E0811709F443C0BD
:10164000209721F07F3F21F030E003C031E001C05E
:10165000322F90E030FD34C0089FF001099FF00D5B
:101660001124DF01A156BD4F11963C9111973713FC
:1016700027C03C91361324C012963C911297311129
:101680001FC013964D915C9114974C1B5D0B483C09
:101690005105B0F48091D4028F7080618093D402A0
:1016A000EC55FD4F80818F70806180838FEC92E0DC
:1016B0000E94E007DF91CF911F910F910C94CD0A0A
:1016C00001968770BACFDF91CF911F910F91089546
:1016D0009F92AF92BF92CF92DF92EF92FF920F93C1
:1016E0001F93CF93DF93CDB7DEB761970FB6F89412
:1016F000DEBF0FBECDBF8C0185E0F801DE011D9677
:1017000001900D928A95E1F7F801E2809091CF0265
:101710006091D0022091D2023091D302211531057F
:1017200031F06F3F31F481E09F3F19F403C081E055
:1017300001C080E0F82FF1709F2E80FD3FC1F801BD
:1017400040815181A380B4808FECC82E82E0D82ED6
:10175000F090D102F501E21BF30BFF2009F4D9C090
:101760008091D402E83CF10508F095C0282F207F35
:1017700009F052C0561313C0491311C0FE2CE110DA
:101780000EC08F7080618093D4020E94EE0AC60161
:101790000E94E0078091D402F80185834CC1AB28F8
:1017A00031F05F3F31F481E04F3F19F403C081E035
:1017B00001C080E080FD03C081E08E2502C080E092
:1017C00090E0F82FF170FF2E80FF1CC080919D02E9
:1017D00020919E0236E0821709F40BC190E0389FF9
:1017E000F001399FF00D1124E156FD4F6181561330
:1017F00006C06081461303C06281E61203C00196F1
:101800008770E9CFFE2CEE2009F415C18091D40237
:1018100081608093D40254C0561306C0491304C09B
:10182000E11002C0F80199C0C8010E945208882343
:1018300061F1EE2051F12091D402822F82958F70B8
:1018400090E0029774F08091CF029091D002988737
:101850008F831986BB86AA862C87CE0107960E94A5
:10186000E00786E0F801AFECB2E001900D928A95B6
:10187000E1F70E94FC0A0E94EE0A0AC0561711F115
:10188000C8010E94520881112CC0C8010E94E007C3
:10189000FF24F394D0C0282F207F81F77A2DB98AB6
:1018A000A88A6E2D89890E945A088FEC92E00E94C6
:1018B000E00786E0F60111928A95E9F70E94EE0AA8
:1018C000F12CB9C04913DCCFE110DACFF8018583E0
:1018D000C8010E94E00786E0F60111928A95E9F7B7
:1018E000AAC0EE2091F22091D402822F82958F70AF
:1018F00090E002970CF4B5CF8091CF029091D00286
:101900009A8389831B82BD82AC822E83CE0101968D
:10191000A6CFE83CF10508F044C0FE2CEE2009F407
:10192000B4CF561330C049132EC02091D40220FDED
:1019300021C0822F82958F70482F50E041155105AC
:10194000C9F0F80125834F30510541F08F5F982F82
:101950009295907F822F8F70892B8583C8010E947A
:10196000E00786E0F801AFECB2E001900D928A95B5
:10197000E1F73CC086E0F801AFECB2E001900D92D7
:101980008A95E1F758C0C8010E945208811169CFB9
:101990008091D40281608093D402C8010E94E00744
:1019A0004AC07A2DB98AA88A6E2D89890E945A0860
:1019B00086E0F60111928A95E9F718C0EE2009F445
:1019C00064CFC8010E945208F82E882309F45DCF25
:1019D00086E0F801AFECB2E001900D928A95E1F754
:1019E0008FEC92E00E9465040E94FC0A0E94EE0ABD
:1019F00022C04D875E878D859E850E94220A292FF1
:101A000022952F70223028F49F7039F0811105C083
:101A10000BC0243028F49F7049F4805E883020F099
:101A2000C8010E94E0079F2CF92C05C0F8019581A0
:101A3000907F99F7F9CF8F2D61960FB6F894DEBF9E
:101A40000FBECDBFDF91CF911F910F91FF90EF900F
:101A5000DF90CF90BF90AF909F9008951F93CF934A
:101A6000DF93CDB7DEB72C970FB6F894DEBF0FBE6D
:101A7000CDBF4F83588769877A878B879C87CE0134
:101A800007960E94680B8823D1F09F8188852A855C
:101A90003B85232B31F08F3F31F481E09F3F19F4D8
:101AA00003C081E001C080E080FD47C04F815885C0
:101AB00069857A858B859C850E9469083EC086E091
:101AC000FE013796DE01119601900D928A95E1F79D
:101AD000FF81E8856A857B856115710531F0EF3FEF
:101AE00031F481E0FF3F19F403C081E001C080E0E0
:101AF00080FD23C020919E0230E0C90101968770CD
:101B0000992740919D0250E084179507F1F1F983E0
:101B1000EA837D836C8396E0929FD001939FB00D02
:101B20001124A156BD4FFE01319601900D929A9558
:101B3000E1F780939E020E94CD0A16E080919D02FB
:101B400090919E02891771F1189FC001112481564E
:101B50009D4F0E94680B882329F1E0919D021E9FF2
:101B6000F0011124E156FD4F408151816281738162
:101B7000848195810E94690880919D0290E0019680
:101B80008770992780939D02D9CF0E942A081092CE
:101B90009E0210929D02EFECF2E086E0DF011D92C2
:101BA0008A95E9F72C960FB6F894DEBF0FBECDBF2D
:101BB000DF91CF911F9108958091D50285958595EC
:101BC000859508958091D502877008959091D502EA
:101BD000977081E009F480E0089590914C0392FBA6
:101BE000222720F9281751F080FB92F990934C039B
:101BF00080914B0390914C030C94F70E08958091C3
:101C00004C0382FB882780F991E089270C94ED0D25
:101C100081E00C94ED0D80E00C94ED0D8091E102DB
:101C200008959091E102892B8093E10208958095B7
:101C30009091E10289238093E10208951092E102DC
:101C400008959091E002892B8093E0020895809599
:101C50009091E00289238093E00208951092E002BF
:101C600008959091DF02892B8093DF02089580957B
:101C70009091DF0289238093DF0208951092DF02A2
:101C800008958091D602089508950C94440E0C9402
:101C9000450E90914C0392FD08C09091D602981782
:101CA00021F08093D6020C94470E08958091D602BD
:101CB000882329F01092D60280E00C94470E0895F4
:101CC000E091D301F091D4018091E1028083E09111
:101CD000D301F091D40190818091E002892B80831F
:101CE000E091D301F091D40190818091DF02892BA2
:101CF00080838091D602882381F0E091D301F09116
:101D0000D4019081892B80838091D3019091D4015B
:101D10000E94952981110E94560E8091D3019091C5
:101D2000D4010C9450290C94440E90914C0392FDD4
:101D300010C098E0899F90011124262B2093D50292
:101D40000E94EB088091D5028595859585950C9428
:101D5000930E0C94EB081092D50280E00C94930E35
:101D60002091D502809582238093D502982F977079
:101D700041F430E0482F082E000C550B241735078E
:101D800021F490914C0392FF07C085958595859528
:101D90000E940C090C94AB0E08956FEF7FEF80E06A
:101DA00090E00C94DD3280E090E00E94A93221E0C6
:101DB000893E9E4F09F020E0822F089582E090E056
:101DC0000C94A13283E090E00C94A132CF9384E094
:101DD00090E00E94A132C82F82E290E00E94A132DE
:101DE0002C2F30E0A901582BCA01CF910895CF9331
:101DF000C92F682F84E090E00E94BF326C2F82E2EE
:101E000090E0CF910C94BF32AB01BC018FE090E029
:101E10000C94D132AB01BC0183E190E00C94D1323F
:101E200060E070E0CB010C940A0F60E070E0CB0141
:101E30000E94040F0C94100F69EE7EEF80E090E09A
:101E40000E94DD3260E082E090E00E94BF3260E0FC
:101E500083E090E00E94BF321092990210929A02A1
:101E600010929B0210929C0260E084E090E00E943D
:101E7000BF3260E082E290E00E94BF3260E085E025
:101E800090E00E94BF3260E086E090E00E94BF32A6
:101E90006FEF87E090E00E94BF3240E050E0BA016F
:101EA00088E090E00E94D13260E08DE090E00E94F6
:101EB000BF3240E050E0BA0188E190E00E94D132A8
:101EC00060E087E190E00E94BF3240E050E0BA015C
:101ED0008CE190E00E94D13260E070E080E290E01E
:101EE0000E94DD3240E050E0BA0188E190E00E94BB
:101EF000D1320C94150F0C941C0F682F8EE090E0DB
:101F00000C94BF320E94792A6093EF027093F00222
:101F10008093F1029093F2026093EB027093EC02D3
:101F20008093ED029093EE02089585B7806885BF97
:101F300085B7806885BF089581E008950C949C0F53
:101F400008950C94A00F0C94A00F0C94A30F0C9464
:101F5000A00F0C94A70F0C94A00F0E94950F89E975
:101F600092E10E94FA2A0E94AB0F0C94A90F0E94E2
:101F7000A10F0C94A00F0E94642A0E94A1130C943C
:101F8000A50F6F927F928F929F92AF92BF92CF9246
:101F9000DF92EF92FF920F931F93CF93DF93CDB712
:101FA000DEB72A970FB6F894DEBF0FBECDBF0E94F2
:101FB000C31381110E94820F33EE832E32E0932EE1
:101FC00000E010E0E02E802F0E94D7125C01F401A7
:101FD000619071904F016826792661147104B1F403
:101FE0000F5F1F4F0430110569F78FEF89838A83D4
:101FF0001B820E946D2A8160782F9D838C8349818A
:102000005A816B818D810E941B0443C08091F30231
:1020100081FD0E94E012F12CCC24C394D12CC30189
:102020008C219D21892B71F10E949E0FAC20BD2037
:102030008823A1F0FE82EF8281E0A114B10409F4AB
:1020400080E088870E946D2A8160782F9A8789872F
:102050004E815F8168858A850E941B04000F111FD5
:10206000F801ED51FD4F80819181C826D926D1829A
:10207000C08241E0AB2809F440E06F2D8E2D0E9414
:10208000D82107C0F394CC0CDD1CFCE0FF12C7CFB5
:10209000A7CF0E943E240E94C6150E944429909119
:1020A000E2028917D1F00E9444298093E2022A9625
:1020B0000FB6F894DEBF0FBECDBFDF91CF911F9159
:1020C0000F91FF90EF90DF90CF90BF90AF909F90D7
:1020D0008F907F906F900C9412042A960FB6F8940C
:1020E000DEBF0FBECDBFDF91CF911F910F91FF904B
:1020F000EF90DF90CF90BF90AF909F908F907F90A8
:102100006F90089580E090E00895089520E3829F05
:10211000C0011124FC012CE0729FE00DF11D11247F
:10212000E60FF11DEE0FFF1FE450FF4F85919491D4
:102130000895880F991FFC01E456FC4F85919491F6
:102140000895CF93DF930E94C211EC01811520E521
:10215000920708F03FC0811540E4940708F0D2C010
:10216000883E910500F5803E910508F002C1883A4D
:10217000910570F4853A910508F0A6C0813091056B
:1021800009F49FC008F4F2C0049708F0F2C0EEC052
:102190008F3B910508F4A1C0803C910508F4E6C08E
:1021A000805C9109A5C0811550E2950760F4C115C6
:1021B00081E0D80708F0DDC0CD3ED10508F4D6C0D7
:1021C000CE019065D7C0811520E3920708F093C037
:1021D0009F708EC0811545E5940708F046C08115B3
:1021E00054E5950708F0A6C0C11582E5D80718F593
:1021F000C11521E5D20708F088C0CE01F4E096951C
:102200008795FA95E1F7282F23703C2F337081E0F2
:1022100090E002C0880F991F3A95E2F79C68922BD4
:102220002C2F2F702695269540E2249F9001112493
:10223000822B932B9FC09E01237033279C2F969552
:102240009695C115D34508F065C041E050E002C045
:10225000440F551F2A95E2F780E2989F90011124C0
:10226000CA01822B932B9C6885C0811559E595077F
:1022700098F4C11588E5D80708F061C0C11526E5B6
:10228000D20708F073C08C2F0E9456128F7190E015
:10229000982F882790626EC081154AE5940708F44C
:1022A00053C090568115904208F060C08D2F8F71F9
:1022B0000E9456129E01332730628F71A901582B5C
:1022C00053C081E090E056C0855AC82FD0E0C05B73
:1022D000DD4F888190E090644DC0885AC82FD0E0CF
:1022E000CC0FDD1FCE5DDD4F88819981946442C0A3
:1022F0000E9499103FC09927D3FF02C0986C3AC042
:10230000906C38C09F70906A35C09C2F8827816F71
:10231000906A30C041E050E002C0440F551F2A953A
:10232000E2F780E2989F90011124CA01822B932B3F
:102330009A6820C0982F8827846F906A1BC09C2FB2
:102340008827806F906A16C08F700E9456129E0177
:1023500094E0369527959A95E1F72F7030E0322F6B
:1023600022273069A901482BCA0104C080E090E00F
:1023700001C0CE01DF91CF9108950E9486100E9486
:10238000A11008958238910569F1B0F48133910567
:1023900009F46DC048F48932910509F463C08A32AA
:1023A000910509F469C008958533910509F455C074
:1023B00089339105B9F00895833E910569F138F4A8
:1023C000803E9105B1F0823E910509F10895863E67
:1023D0009105A9F1873E9105B9F1843E910509F077
:1023E00064C023C020914B0320FD4FC021FD4DC090
:1023F000089580914B0380FD44C080914C0380FF81
:1024000044C080914B0384FD42C083EE4DC0809157
:102410004B0382FF38C0F5CF80914B0382FD33C060
:1024200080914C0380FD31C0ECCF80914C0381FF43
:1024300032C080914B0384FD2AC087EE35C0809165
:102440004B0383FF26C0F5CF80914B0383FD21C052
:1024500080914C0381FD1FC0ECCF80914B0385FD23
:102460001CC01DC080914B0385FD19C016C0809112
:102470004B0386FD16C017C080914B0386FD13C029
:1024800010C089E311C082EE0FC080EE0DC080E065
:102490000BC086EE09C084EE07C089E205C085E363
:1024A00003C08AE201C081E390E0089590914B035C
:1024B00092FF0DC0282F2871283019F4877F84607F
:1024C00006C0282F2471243011F48B7F886093FF7D
:1024D0000DC0282F2871283119F4877E846106C029
:1024E000282F2471243111F48B7E886120914C03B4
:1024F00020FF0DC0382F3871383019F4877F816084
:1025000006C0382F3171313011F48E7F886021FF81
:102510000DC0282F2871283119F4877E816106C0EB
:10252000282F2171213111F48E7E886194FD877EE0
:10253000089580E008950C94CD0E0E94C3138FE39C
:102540009CE90197F1F700C000000E94C31380E0EE
:102550000E94D71280FF04C00E949B120C94D62ABE
:1025600008950C949D120E94D30E811102C00E9406
:102570007B0F0E94DE0E8093F3020E94E60E909382
:102580004C0380934B030E94B1120E94E20E682F0D
:1025900070E080E090E00E948B086091950270915D
:1025A000960280919702909198020C94C308E82FAC
:1025B000F0E0EE0FFF1FEB5AFC4F808191810895F0
:1025C000089580EA8A95F1F7089500C008950C9463
:1025D000E11208950C94E9120C94EA120C94E91299
:1025E0000C94EE12F894E82FE295EF70F0E031A130
:1025F000282F2F7081E090E001C0880F2A95EAF71C
:10260000982F9095932391A392A1892B82A37894DC
:1026100008950F931F93CF93DF93CFE5D2E0899175
:102620008F3F11F00E94F21282E0C336D807B9F74B
:10263000C3E5D2E00FE512E089918F3F11F00E94CF
:10264000F2120C171D07C1F7DF91CF911F910F9167
:102650000895AF92BF92CF92DF92EF92FF920F93C5
:102660001F93CF93DF938C01C62FD0E0CE01815A08
:102670009D4F6C01DC019C919F3F09F457C0B62E21
:10268000F894E92FE295EF70F0E081A19F7021E0CE
:1026900030E001C0220F9A95EAF7822B81A382A134
:1026A0002095282322A378940E94E512E3E5F2E026
:1026B00020E030E0E12CF12C41E050E081918F3FAF
:1026C000C1F0A82FA295AF70B0E090966C9170E029
:1026D0008F70DB0102C0B595A7958A95E2F7A0FD42
:1026E00008C0CA01022E02C0880F991F0A94E2F79F
:1026F00002C080E090E0E82AF92A2F5F3F4F2C309B
:102700003105E1F6F60180818F3F11F00E94F2124F
:1027100061E0E114F10409F460E08B2D0E94E712FE
:10272000CC0FDD1FC00FD11FF982E882DF91CF915E
:102730001F910F91FF90EF90DF90CF90BF90AF90DF
:1027400008950E940913ADE4B3E011961C921E9205
:10275000E5E5F3E01182108213961C921E92129707
:102760001382128215961C921E921497158214825F
:1027700017961C921E9216971782168284E00E946A
:102780000E140C949703FF920F931F93CF93DF9334
:10279000CDB7DEB728970FB6F894DEBF0FBECDBF1A
:1027A0008E010F5F1F4F88E0F80111928A95E9F7BB
:1027B000F12C6F2DC8010E942913F394F4E0FF124D
:1027C000F8CF48E050E0B8018DE493E00E947B32FE
:1027D000FF24F394009709F4F12C892B41F088E051
:1027E000F801ADE4B3E001900D928A95E1F72F2D49
:1027F00044E065E573E08DE493E00E940F140E94CD
:102800009F038F2D28960FB6F894DEBF0FBECDBF65
:10281000DF91CF911F910F91FF9008950895FF923E
:102820000F931F93CF93DF93F82E092F162FD72FD7
:10283000C42F222349F081E08093F6020E946D2A82
:102840009093F5028093F4028091F6028823D9F0E8
:102850008091F4029091F5020E94852A059798F0E4
:10286000EF2DF02FA12FBD2F80E090E04C2F50E0F6
:102870008417950734F4219131912D933D9301965E
:10288000F7CF1092F602DF91CF911F910F91FF9039
:1028900008950E94E2290E945B2C0E94742C0E94E1
:1028A000862C0E94B70FFBCF8091FD0280FF0BC0EA
:1028B0006091DA0185E0689FB001112475956795F4
:1028C000759567952BC081FF09C06091DA0185E09D
:1028D000689FB00111247595679520C082FF07C0DD
:1028E0006091DA0185E0689FB001112417C09091D2
:1028F000FC029923D1F06091D901961788F72091B5
:10290000DA0185E0289F90011124929FA001939FF6
:10291000500D112470E0CA010E94C4316038710565
:1029200040F46115710519F406C065E070E0862F6A
:1029300008958FE7089581E008958091FD0280FF5A
:1029400008C06091D60170E075956795759567959B
:1029500021C081FF06C06091D60170E07595679532
:1029600019C082FF04C06091D60170E010C0909140
:10297000FB02992399F06091D5019617A0F78091F9
:10298000D601899FC001112470E00E94C4316038D3
:10299000710540F46115710519F406C061E070E03D
:1029A000862F08958FE7089581E008958D3E21F4E4
:1029B0000E945414819504C08E3E29F40E94541440
:1029C0008093010308958F3E21F40E945414819551
:1029D00004C0803F29F40E9454148093000308959A
:1029E000893F19F40E949D1405C08A3F31F40E946A
:1029F0009D1481958093020308958B3F21F40E94DA
:102A00009D14819504C08C3F29F40E949D148093ED
:102A1000030308959FE0980F983078F421E030E0A8
:102A2000A90102C0440F551F9A95E2F7CA0190917F
:102A3000FF02892B8093FF0208958D3F21F480913E
:102A4000FD0281600BC08E3F21F48091FD02826007
:102A500005C08F3F29F48091FD0284608093FD02C0
:102A600008958D3E39F49091010397FF35C010927F
:102A7000010359C08E3E29F4909101031916BCF34D
:102A80002BC0909100038F3E29F497FF25C0109230
:102A9000000349C0803F19F41916CCF31DC0909172
:102AA0000203893F29F41916BCF4109202033BC0BB
:102AB0008A3F19F497FF10C0F8CF8B3F39F49091FB
:102AC000030397FF09C0109203032DC08C3F21F42C
:102AD000909103031916BCF39FE0980F983080F48F
:102AE00021E030E0A90102C0440F551F9A95E2F79A
:102AF000CA0180959091FF0289238093FF0213C041
:102B00008D3F21F48091FD028E7F0BC08E3F21F41A
:102B10008091FD028D7F05C08F3F29F48091FD02D9
:102B20008B7F8093FD0280910003811106C080910C
:102B30000103811102C01092FC02809102038111F5
:102B400006C080910303811102C01092FB02089518
:102B50000E946D2A20910003211104C020910103DD
:102B6000222321F09093FA028093F902209102032C
:102B7000211104C020910303222321F09093F80235
:102B80008093F7028EEF92E00C945B29EF92FF9214
:102B90000F931F93CF93DF9300D000D000D0CDB719
:102BA000DEB786E0EEEFF2E0DE01119601900D92C5
:102BB0008A95E1F7E0900003F09001030091020391
:102BC000109103031092000310920103109202036C
:102BD00010920303E11003C0FF2009F45DC080914F
:102BE000F9029091FA020E94852AAC019091FC02B0
:102BF000992339F02091DB0130E02417350758F094
:102C00004BC02091DC018AE0289F900111242417F9
:102C1000350718F041C09F3F19F09F5F9093FC0269
:102C2000EE2061F00E9454141E1414F09FEF01C0B6
:102C300091E0989F902D112490930003FF2061F064
:102C40000E9454141F1414F09FEF01C091E0989F4C
:102C5000902D112490930103309100033323E1F070
:102C6000209101032223C1F045EB3403C00111245C
:102C7000992319F09093000303C081E0809300032F
:102C800035EB2303C0011124992319F0909301031C
:102C900003C081E080930103011103C0112309F4F3
:102CA0005DC08091F7029091F8020E94852AAC01E4
:102CB0009091FB02992339F02091D70130E024173D
:102CC000350758F04BC02091D8018AE0289F900129
:102CD00011242417350718F041C09F3F19F09F5F5A
:102CE0009093FB02002361F00E949D14101614F0D3
:102CF0009FEF01C091E0989F902D112490930203C3
:102D0000112361F00E949D14111614F09FEF01C071
:102D100091E0989F902D112490930303309102032A
:102D20003323E1F0209103032223C1F045EB340368
:102D3000C0011124992319F09093020303C081E08C
:102D40008093020335EB2303C0011124992319F06A
:102D50009093030303C081E08093030380910003F9
:102D600081110BC080910103811107C08091020382
:102D7000811103C08091030381110E94A815EB8289
:102D8000FC820D831E8386E0FE013196AEEFB2E039
:102D900001900D928A95E1F726960FB6F894DEBF62
:102DA0000FBECDBFDF91CF911F910F91FF90EF909C
:102DB0000895EEEFF2E086E0DF011D928A95E9F7D3
:102DC0001092FC021092FB021092FD020895EF9205
:102DD000FF920F931F93CF93DF938B01682F1111F5
:102DE0000AC0442329F0E82FF0E0E456FC4F649138
:102DF000762F862F75C0212F30E0E82FF0E0442396
:102E000021F0E456FC4FE491F0E046E0049FC0015D
:102E10001124CFEFD0E0BE010E94B0314BEA46034F
:102E2000C001479F900D1124800F911D800F911DAF
:102E3000982F990F890FAE01421B530B4E9FD00163
:102E40004F9FB00D5E9FB00D11249B2F189FA001C6
:102E50001124452F55278E01041B150B0E9FA00131
:102E60000F9F500D1E9F500D11247E01E81AF1088E
:102E7000E29E8001E39E100DF29E100D1124212F81
:102E80003327C21BD30BCE9F9001CF9F300DDE9F07
:102E9000300D112462307105A9F048F461157105F7
:102EA00069F061307105C9F48B2F752F0DC0643046
:102EB000710581F058F06630710579F47E2F8B2F03
:102EC000932F0DC0832F7B2F9E2F09C08E2F7B2F1A
:102ED000952F05C08E2F732F02C07E2F852F692F4F
:102EE000DF91CF911F910F91FF90EF90089541E0F6
:102EF0000E94E716089520E030E0869F212D969FDE
:102F0000200D311D1124C9010895BC0182309105A5
:102F100008F40895613E8EE1780748F49B0195E03E
:102F2000369527959A95E1F748E0420F01C04FEF9B
:102F300091E0242F30E0290F311D35952795229FF0
:102F4000F001239FF00DF00D11246E177F0718F488
:102F50004FEF420F04C02F3F39F091E0920F491715
:102F600040F78FEF890F08958FEF0895482F982F1E
:102F700046FD9095E92FEF739F7046FD9F5FE295A8
:102F8000EF70EE0FF0E0ED59FD4F2181299F802D6C
:102F9000212D112482958F702295207F822B3081E4
:102FA000982F930F892F47FD819580580895E42F1E
:102FB000F0E0EE0FFF1FEC5CFE4F408134EE439FCC
:102FC000412D1124E72FF0E050E0445E5F4FDA011D
:102FD000A21BB1099D01B7FF03C0319521953109AD
:102FE00093E0220F331F9A95E1F7AF01421B530B79
:102FF0009A0157FF02C020E030E0279F212D1124C5
:10300000722F0895E42FF0E0EE0FFF1FEC5CFE4FEF
:10301000408134EE439F412D1124E82FF0E050E031
:10302000445E5F4FDA01A21BB1099D01B7FF03C0E7
:1030300031952195310993E0220F331F9A95E1F7DD
:10304000AF01421B530B9A0157FF02C020E030E052
:10305000582F259F212D1124822F0895622F089526
:10306000E42FF0E0EE0FFF1FEC5CFE4F6081621B6F
:103070000895E42FF0E0EE0FFF1FEC5FFE4F61A913
:10308000621B0895A22F50E0FA01EE0FFF1FEC5FC4
:10309000FE4F91A9905297FD9195440F551FFA014B
:1030A000EC5CFE4F3081232F30E02A1B3109290FC1
:1030B000311D97FD3A95620F0895EF920F931F937C
:1030C00093E0099F80011124159507956E2D600FDF
:1030D0001F910F91EF9008950F93CF93DF93D72F08
:1030E000C82F47FD4195E8E3F0E0CF01841B91092B
:1030F00047FD9395889FB001899F700D700D112435
:10310000229FC001239F900D900D1124860F971FC1
:103110000E948517682F660F860F682F600F7D2F1E
:103120008C2FDF91CF910F9108950F931F93522F02
:1031300010E0F801EE0FFF1FEC5FFE4FE1A9F0E099
:10314000B0979F015203D001539FB00D1124000F7F
:10315000111FF801EC5CFE4F008110E000571109CF
:1031600040039001419F300D11242A0F3B1F37FF70
:1031700002C021583F4F220F232F221F330B620F13
:103180001F910F9108950F931F93522F10E0F80194
:10319000EE0FFF1FEC5FFE4FE1A9F0E0B097EE0FDE
:1031A000FF1F9F015203D001539FB00D1124000F48
:1031B000111FF801EC5CFE4F008110E0005711096F
:1031C000000F111F40039001419F300D11242A0F61
:1031D0003B1F37FF02C021583F4F220F232F221FD2
:1031E000330B620F1F910F9108950F931F9310E0FF
:1031F000F801EE0FFF1FEC5CFE4F9081905797FD9A
:103200009195000F111FF801EC5FFE4FE1A9F0E06E
:10321000B097DF01AA0FBB1F8D010E0F1F1F2003E8
:10322000D001219FB00D1124E8E3F0E0E91BF10982
:1032300097FDF3959F01220F331F89010E0F1F1F6A
:1032400040039001419F300D11242A0F3B1F37FF8F
:1032500002C021583F4F220F232F221F330B620F32
:103260001F910F9108950F931F93CF93DF93D62F44
:10327000072F182FC42F822F0E94B617EC2FF0E0D3
:10328000EE0FFF1FEC5CFE4F90819058890F87FD79
:103290008195880F682F2CE0629F612D11246D0F9E
:1032A000702F812FDF91CF911F910F910895E42FFF
:1032B000F0E0EE0FFF1FEC5CFE4F9081921B97FD3C
:1032C0009195292F38E1239F212D1124620F089514
:1032D0004095282F429F412D1124842F089522E8E4
:1032E000241B08F420E0620F0895EF92FF920F93E1
:1032F000970195E0099F200D311D11242F3F3105C5
:1033000019F010F02FEF30E02095382F320F08F42D
:103310003FEF832F0F91FF90EF900895EF92FF9270
:103320000F93E00EF11CF90137FF03C0F195E19511
:10333000F10924E0EE0FFF1F2A95E1F7EF3FF105B9
:1033400019F014F0EFEFF0E09A0157FF03C0319548
:103350002195310994E0220F331F9A95E1F72E173A
:103360003F070CF4F901EE0DFF1DEF3FF10519F0D9
:1033700010F0EFEFF0E02E2F2095382F320F08F4E9
:103380003FEF832F0F91FF90EF900895EF92FF9200
:103390000F93972F093438F4B701601B71096F3F01
:1033A000710519F010F06FEF70E0485F5F4F413129
:1033B000510540F0A901485F5F4F4131510510F0C0
:1033C0006FEF70E06095482F460F08F44FEF842FA1
:1033D00037FF02C02D5F3F4F3595279535952795CF
:1033E00060915E03620F792F0F91FF90EF90089527
:1033F000EF92FF920F939701201B31092F3F310568
:1034000019F010F02FEF30E0322F3095482F430F96
:1034100008F44FEF842F620F0F91FF90EF90089503
:10342000EF92FF920F939701201B31092F3F310537
:1034300019F010F02FEF30E02095382F320F08F4FC
:103440003FEF832F0F91FF90EF900895FC019B01B8
:10345000009721F477FF2BC080E80895AC0197FF17
:1034600004C044275527481B590BB901640F751F29
:1034700037FD0CC0241B350BC901A5E0880F991F2F
:10348000AA95E1F70E94C43180E20CC0CB0165E04F
:10349000880F991F6A95E1F7BA01621B730B0E94AE
:1034A000C43180E6861BF7FF03C08195089580E054
:1034B0000895FF920F931F93CF93DF93F62E172F4C
:1034C000D82FC901C72FC01BBA010E94261A982FF6
:1034D000990F890F7C2F781B719F712D11246F2DEF
:1034E0008D2FDF91CF911F910F91FF900895FF9243
:1034F0000F931F93CF93DF93F62ED72F182FC90169
:10350000C12FC01BBA010E94261A982F990F890F4C
:10351000C81B2C2F219F212D1124822F6F2D7D2F31
:10352000DF91CF911F910F91FF900895EF920F932C
:103530001F93CF93DF93D62F172FC82FC9010E19D2
:10354000070FBA010E94261A702F781B719F712DE8
:1035500011246D2F8C2FDF91CF911F910F91EF9040
:103560000895EF920F931F93CF93DF93D62FC72F1A
:10357000182FC9010E19010FBA010E94261A081B43
:10358000202F219F212D1124822F6D2F7C2FDF9141
:10359000CF911F910F91EF9008950F93CF93DF93E9
:1035A000D72FC82FC901BA010E94261A682F600FB1
:1035B0007D2F8C2FDF91CF910F910895EF920F9374
:1035C000CF93DF93D72FC82FC9010E19BA010E94DC
:1035D000261A602F681B7D2F8C2FDF91CF910F91C2
:1035E000EF9008950E947717089546E050E06CE14F
:1035F00070E08DE593E00C94913246E050E06CE190
:1036000070E08DE593E00C94AF32EDE5F3E085E3F7
:1036100080838091EE019091EF01A091F001818370
:103620009283A3838FE784838FEF85830C94FD1AA5
:1036300080E008950F931F93CF93DF93C82FD62F69
:103640008A010E94181B9CE0C99FF0011124EC5FC5
:10365000FE4FED0FF11D90819F3F29F0F801E80F1B
:10366000F11D90838F5FDF91CF911F910F9108958E
:10367000E0917102F09172020994E0916D02F09173
:103680006E0209944F925F926F927F928F929F92F7
:10369000AF92BF92CF92DF92EF920F931F93CF938F
:1036A000DF932C013B01FC01C0818BE0C89FC02D42
:1036B0001124DBE0DC0FD63308F0D5E36091610321
:1036C000669580916303909164030E947B17182F85
:1036D000CD1708F044C08C2E912CF401E256FE4F19
:1036E0009081F20181818923C1F1F401EE0FFF1F66
:1036F000EC5CFE4FC080D12CF0E7CF1AD108F4016A
:10370000EE0FFF1FEC5FFE4FA1A8B12C80E2A81ABC
:10371000B108CC9C9001CD9C300D300D1124AA9C99
:10372000C001AB9C900D900D1124820F931F0E943D
:103730008517082F60915E0370915F03809160038D
:10374000E12E9501A601F30109950E94F21A462F78
:10375000282F672FC4010E943D1BCF5FB9CF81E0A6
:10376000D53308F080E0DF91CF911F910F91EF905A
:10377000DF90CF90BF90AF909F908F907F906F9091
:103780005F904F90089566E97AE10C94421B61EBDB
:103790007AE10C94421B6DE578E10C94421B6EEDCE
:1037A0007AE10C94421BAF92BF92CF92DF92EF92DC
:1037B000FF920F931F93CF93DF936C015B01FC018A
:1037C000C0818BE0C89FC02D1124DBE0DC0FD63315
:1037D00008F0D5E360916103669580916303909151
:1037E00064030E947B17182FCD1778F5EC2EF12C6F
:1037F000F701E256FE4F9081F6018181892319F18C
:10380000F701EE0FFF1FEC5FFE4F21A930E02052C1
:103810003109F701EE0FFF1FEC5CFE4F408150E0D5
:103820004057510960915E0370915F03809160037E
:10383000012FF50109950E94F21A462F282F672FB4
:10384000C7010E943D1BCF5FCFCF81E0D53308F089
:1038500080E0DF91CF911F910F91FF90EF90DF906B
:10386000CF90BF90AF90089569E57AE10C94D31B97
:1038700067E77AE10C94D31B6CE678E10C94D31BD8
:103880006DEC7AE10C94D31BBF92CF92DF92EF9252
:10389000FF920F931F93CF93DF938C017B01FC0169
:1038A000C0818BE0C89FC02D1124DBE0DC0FD63334
:1038B00008F0D5E3609161036695669521E0620F9B
:1038C00008F46FEF80916303909164030E947B176B
:1038D000B82ECD17F0F4CC2ED12CF601E256FE4FC7
:1038E0009081F8018181892391F060915E0370914C
:1038F0005F03809160032B2D4C2FF70109950E94E7
:10390000F21A462F282F672FC6010E943D1BCF5F5A
:10391000E0CF81E0D53308F080E0DF91CF911F91B7
:103920000F91FF90EF90DF90CF90BF90089567EDDB
:1039300077E10C94441C62E078E10C94441C6EE244
:1039400078E10C94441C60E378E10C94441C69E336
:1039500078E10C94441C62E478E10C94441C63E329
:1039600079E10C94441C67E579E10C94441C7F9246
:103970008F929F92AF92BF92CF92DF92EF92FF927F
:103980000F931F93CF93DF936C015B01FC01C08108
:103990008BE0C89FC02D1124DBE0DC0FD63308F08C
:1039A000D5E360916103669566958091630390917C
:1039B00064030E947B17182F80E4810F0E94B617C2
:1039C00090E8F92EF80E812F0E94B61720E8722E8B
:1039D000780ECD1700F58C2E912CF401E256FE4F97
:1039E0009081F60181818923A1F060915E0370913D
:1039F0005F0380916003E12E0C2F272D4F2DF501E1
:103A000009950E94F21A462F282F672FC4010E94A1
:103A10003D1BCF5FDECF81E0D53308F080E0DF9142
:103A2000CF911F910F91FF90EF90DF90CF90BF90BB
:103A3000AF909F908F907F90089565E978E10C9406
:103A4000B71C63EC78E10C94B71C65EF78E10C943B
:103A5000B71CAF92BF92CF92DF92EF92FF920F937B
:103A60001F93CF93DF938C017B01FC01C0818BE01E
:103A7000C89FC02D1124DBE0DC0FD63308F0D5E35E
:103A80002091610331E0230F08F42FEF30E040E094
:103A900050E06FEF7FEF80E090E00E94D831690145
:103AA000CD1708F041C0AC2EB12CF501E256FE4F07
:103AB0009081F80181818923A9F190916703915048
:103AC00097FD15C0292F092E000C330BF901E95978
:103AD000FC4F8189C813F3CF220F331FF901E95935
:103AE000FC4F218D328D2C153D0548F701C0960104
:103AF0006091610341E0640F08F46FEFC9010E9417
:103B00007B17AC0160915E0370915F03809160034D
:103B1000F70109950E94F21A462F282F672FC50139
:103B20000E943D1BCF5FBCCF81E0D53308F080E021
:103B3000DF91CF911F910F91FF90EF90DF90CF9089
:103B4000BF90AF90089568E679E10C94291D6FE667
:103B500079E10C94291D2F923F924F925F926F92C0
:103B60007F928F929F92AF92BF92CF92DF92EF920D
:103B7000FF920F931F93CF93DF93CDB7DEB72997B3
:103B80000FB6F894DEBF0FBECDBF8B834B013A0159
:103B9000DB011C918BE0189F102D1124BBE0B10FAD
:103BA000B983B63310F0E5E3E983F0916703FA8354
:103BB0008981181708F07FC0A12EB12CF501E256BB
:103BC000FE4F9081D40111968C91892309F471C024
:103BD00020905E0330905F034B80512CC501880F0D
:103BE000991FFC01EC5CFE4FFD83EC83C501880F3F
:103BF000991F9C012B5C3E4F3F832E83FA814F1609
:103C000008F047C0E42CF12CAC81BD81BC91EB2FB6
:103C1000F0E0F987E887F701E959FC4F81812885B1
:103C20003985281B310939872887AE81BF81CC901F
:103C3000D12C8185C81AD108F901EE9F9001EF9F20
:103C4000300D300D1124CC9CC001CD9C900D900DF9
:103C50001124820F931F0E948517082F6091610322
:103C600021E0620F08F46FEFF701EE0FFF1FE95933
:103C7000FC4F818D928D0E947B177C0196014885B7
:103C80005985B101852DF30109951B014394582EE7
:103C9000B5CF20916003352D329F312D1124832F14
:103CA000B1010E94F21A462F282F672FC5010E94EA
:103CB0003D1B1F5F7DCF81E09981953308F080E047
:103CC00029960FB6F894DEBF0FBECDBFDF91CF911E
:103CD0001F910F91FF90EF90DF90CF90BF90AF902A
:103CE0009F908F907F906F905F904F903F902F901C
:103CF00008952091670331E0231B08F420E045E795
:103D000059E1BC01822F0C94AB1D45E759E1BC0180
:103D100080E00C94AB1D2091670331E0231B08F475
:103D200020E04EE859E1BC01822F0C94AB1D4EE817
:103D300059E1BC0180E00C94AB1D2091670331E098
:103D4000231B08F420E046EC59E1BC01822F0C94BF
:103D5000AB1D46EC59E1BC0180E00C94AB1D2091F9
:103D6000670331E0231B08F420E048EF59E1BC0170
:103D7000822F0C94AB1D48EF59E1BC0180E00C94FC
:103D8000AB1D2091670331E0231B08F420E040E1E4
:103D90005AE1BC01822F0C94AB1D40E15AE1BC01F9
:103DA00080E00C94AB1DDF92EF92FF920F931F9374
:103DB000CF93DF938C01DC018C91CBE08C9FC02DE5
:103DC0001124DBE0DC0FD63308F0D5E360915E030D
:103DD00070915F03809160030E94F21AF62EE72E25
:103DE000D82ECD1798F4EC2FF0E0DF01A256BE4F8D
:103DF0008C91D80111969C91982331F02D2D4F2D47
:103E00006E2DCF010E943D1BCF5FEBCF81E0D533FC
:103E100008F080E0DF91CF911F910F91FF90EF901C
:103E2000DF900895AF92BF92CF92DF92EF92FF9210
:103E30000F931F93CF93DF938C01FC01C0818BE024
:103E4000C89FC02D1124DBE0DC0FD63308F0D5E38A
:103E5000E0905F03F0906003D0905E036D2D7E2DA7
:103E60008F2D0E94F21AC62EB72EA82E60916103E4
:103E70006D0D7E2D8F2D0E94F21AF62EE72ED82E74
:103E8000CD17B8F48C2F90E0FC01E256FE4F308144
:103E9000F8012181232359F030FF04C02D2D4F2D2F
:103EA0006E2D03C02A2D4C2D6B2D0E943D1BCF5F24
:103EB000E7CF81E0D53308F080E0DF91CF911F910B
:103EC0000F91FF90EF90DF90CF90BF90AF9008954B
:103ED000BF92CF92DF92EF92FF920F931F93CF93F7
:103EE000DF936C01FC01C0818BE0C89FC02D1124C1
:103EF000DBE0DC0FD63308F0D5E300915F03B09030
:103F000060032091610310E4129F112D1124CD173D
:103F100018F5EC2EF12CF701E256FE4F9081F601D8
:103F200081818923B9F0F701EE0FFF1FEC5FFE4F8F
:103F300081A982958F7060915E03819F600D11242D
:103F4000702F8B2D0E94F21A462F282F672FC70142
:103F50000E943D1BCF5FDBCF81E0D53308F080E0CE
:103F6000DF91CF911F910F91FF90EF90DF90CF9055
:103F7000BF900895BF92CF92DF92EF92FF920F937E
:103F80001F93CF93DF937C01FC01C0818BE0C89F1E
:103F9000C02D1124DBE0DC0FD63308F0D5E3C09050
:103FA0005F03B09060032091610330E4D32E3D2D78
:103FB000329F312D1124D32ECD1738F50C2F10E060
:103FC000F801E256FE4F9081F70181818923D9F0F3
:103FD000F801EE0FFF1FEC5CFE4F6081D69EB00132
:103FE000112495E0759567959A95E1F780915E03A8
:103FF000680F7C2D8B2D0E94F21A462F282F672FD9
:10400000C8010E943D1BCF5FD7CF81E0D53308F0B8
:1040100080E0DF91CF911F910F91FF90EF90DF90A3
:10402000CF90BF900895DF92EF92FF920F931F936E
:10403000CF93DF938C01DC01CC918BE0C89FC02D26
:104040001124DBE0DC0FD63308F0D5E3E0905E030B
:10405000F0905F03D0906003609161036695669570
:10406000669580916303909164030E947B170E9480
:10407000B617805887FD8195880F282F3D2D239FE7
:10408000212D1124822FB7010E94F21AF62EE72E5D
:10409000D82ECD1798F4EC2FF0E0DF01A256BE4FDA
:1040A0008C91D80111969C91982331F02D2D4F2D94
:1040B0006E2DCF010E943D1BCF5FEBCF81E0D5334A
:1040C00008F080E0DF91CF911F910F91FF90EF906A
:1040D000DF900895DF92EF92FF920F931F93CF939B
:1040E000DF93EC01FC01E256FE4F9081692381F1E0
:1040F000D0905F030091600310915E03E12EF12CDC
:104100000E946B32282FC7018C549F4F68E671E0E4
:104110000E94C4318E199F0997FD03969595879546
:10412000959587952370612F289F600D11247D2D13
:10413000802F0E94F21A462F282F672FCE01DF9181
:10414000CF911F910F91FF90EF90DF900C943D1B4A
:10415000DF91CF911F910F91FF90EF90DF90089525
:10416000CF92DF92FF920F931F93CF93DF938C0137
:10417000FC01C281C1111DC06091610320E1620F89
:1041800008F46FEF80916303909164030E947B17A2
:104190006AE070E00E94B031892B59F50E946B32C1
:1041A00065E370E00E94C431F80161810E946A20D9
:1041B00020C0FC018081CBE08C9FC02D11249BE0AE
:1041C000F92EFC0EF5E3FF1510F485E3F82ED0E090
:1041D000CF2CD12CCC15DD053CF4F8016181CE014A
:1041E0000E946A202196F6CFC1E0F4E3FF1508F49F
:1041F000C0E08C2FDF91CF911F910F91FF90DF9046
:10420000CF9008951F93CF93DF93FC01E256FE4FAA
:1042100020816223D1F0EC010E946B32182F0E94A2
:104220006B328F77782F20E8720F08F47FEF612FC1
:10423000809160030E94F21A462F282F672FCE012B
:10424000DF91CF911F910C943D1BDF91CF911F9176
:104250000895CF92DF92FF920F931F93CF93DF9336
:104260008C01FC01C281C1111DC06091610320E17C
:10427000620F08F46FEF80916303909164030E94D2
:104280007B1765E070E00E94B031892B59F50E94E0
:104290006B3265E370E00E94C431F80161810E94D5
:1042A000022120C0FC018081CBE08C9FC02D112415
:1042B0009BE0F92EFC0EF5E3FF1510F485E3F82ED4
:1042C000D0E0CF2CD12CCC15DD053CF4F801618178
:1042D000CE010E9402212196F6CFC1E0F4E3FF1542
:1042E00008F4C0E08C2FDF91CF911F910F91FF90C8
:1042F000DF90CF900895DF92EF92FF920F931F937C
:10430000CF93DF938C01DC01CC918BE0C89FC02D53
:104310001124DBE0DC0FD63308F0D5E3E0905F0337
:10432000F0906003D0905E0360916103669566959E
:10433000669580916303909164030E947B170E94AD
:10434000B617805887FD8195880F682F2CE0629FF3
:10435000612D11246D0D7E2D8F2D0E947717F62E65
:10436000E72ED82ECD1798F4EC2FF0E0DF01A256FF
:10437000BE4F8C91D80111969C91982331F02D2D30
:104380004F2D6E2DCF010E943D1BCF5FEBCF81E003
:10439000D53308F080E0DF91CF911F910F91FF900E
:1043A000EF90DF900895E0916F02F0917002099410
:1043B000CF92DF92FF920F931F93CF93DF93CDB7EE
:1043C000DEB728970FB6F894DEBF0FBECDBF182F0B
:1043D000062FF42E0E949C0F882309F46FC0FF2043
:1043E00049F0AE014F5F5F4F602F812F0E941A1B73
:1043F000F82E01C0F12C0F2D10E0809104039801DC
:10440000280F311D293031056CF188E090E06C01F6
:10441000C01AD10AB8016B5F7C4FA60185E093E01A
:104420000E948832B801635F7C4FA6018DE093E063
:104430000E948832A601440F551FB801660F771FEE
:10444000635E7C4F8DE193E00E948832B8016B5E21
:104450007C4FA60185E193E00E94883288E08F19A5
:104460008093040310910403DE01119640E0842F31
:10447000810FF41609F190E05D91252F30E0BC0129
:104480006C5F7C4FF901EE0FFF1FEC5CFE4F00816B
:10449000FB010183220F331FF901EC5FFE4F21A9BD
:1044A000FB012187518B880F991FFC01EC5FFC4FAA
:1044B000128E118E4F5FDBCF8093040328960FB6C8
:1044C000F894DEBF0FBECDBFDF91CF911F910F914A
:1044D000FF90DF90CF9008958091630390916403E3
:1044E000A0916503B091660388279C70AA27BB271B
:1044F0002AE0B695A795979587952A95D1F78230AA
:104500009105A105B10571F083309105A105B105B3
:1045100069F040E00197A105B10511F060E008C025
:1045200064E102C044E160E080E003C044E164E192
:1045300084E10C94D321CF93C82F8091E1018C1397
:104540000DC020915D03237030E04091E20150E006
:1045500081E02417350719F480E001C081E0817003
:104560008093E001809162039091DF01981739F008
:104570008093DF0140E060E080E00E94D321C431FD
:1045800011F58EED91E00E941D1D09C0C53008F0A7
:104590004FC0C13061F58EED91E00E94D31E909125
:1045A000DE019F5F9093DE01811144C182E0809320
:1045B000DD018091E00181113DC1C1113BC183E06A
:1045C0008093DD0137C1C53108F09BC0C93029F4A3
:1045D0008EED91E00E94381CE2CFCA3008F044C052
:1045E000C430A1F68EED91E00E94BA1FD8CFC13041
:1045F00058F48091E001882329F040E060E080E0F9
:104600000E94D32180E0CBCFC23029F48EED91E01F
:104610000E94121FC4CFC33029F48EED91E00E9496
:10462000681FBDCF8091DE018F5F8093DE01BECF1A
:10463000C63029F48EED91E00E94971CB0CFC630B1
:1046400028F48EED91E00E941320A9CFC73029F401
:104650008EED91E00E949B1CA2CFC83019F78EED21
:1046600091E00E94341C9BCFCE3029F48EED91E076
:104670000E94A71C94CFCF30E8F4CB3029F48EED04
:1046800091E00E94C71B8BCFCB3028F48EED91E0D8
:104690000E94C31B84CFCC3029F48EED91E00E94A0
:1046A0009F1C7DCFCD3009F0BDCF8EED91E00E94F3
:1046B000A31C75CFC13129F48EED91E00E943C1C02
:1046C0006ECFC23178F4CF3029F48EED91E00E94A4
:1046D000AB1C65CFC03109F0A5CF8EED91E00E94F3
:1046E000CB1B5DCFC23129F48EED91E00E94401CBE
:1046F00056CFC33109F096CF8EED91E00E94CF1BCB
:104700004ECFCE3129F48EED91E00E94791E47CF35
:10471000CF3108F043C0C93129F48EED91E00E94F9
:104720007B213DCFCA31E8F4C63129F48EED91E00A
:104730000E94251D34CFC63128F48EED91E00E94F1
:10474000211D2DCFC73129F48EED91E00E94B020BC
:1047500026CFC83109F066CF8EED91E00E94292165
:104760001ECFCB3129F48EED91E00E94B31C17CF00
:10477000CB3128F48EED91E00E94AF1C10CFCC31EC
:1047800029F48EED91E00E94A31D09CFCD3109F0EF
:1047900049CF8EED91E00E94A71D01CFC33229F4CD
:1047A0008EED91E00E94A91EFACEC432E8F4C03228
:1047B00029F48EED91E00E948B1EF1CEC03228F4D8
:1047C0008EED91E00E94851EEACEC13229F48EED75
:1047D00091E00E94971EE3CEC23209F023CF8EED06
:1047E00091E00E949D1EDBCEC63229F48EED91E051
:1047F0000E94C11ED4CEC73278F4C43229F48EEDA3
:1048000091E00E94AF1ECBCEC53209F00BCF8EEDEA
:1048100091E00E94BB1EC3CEC73229F48EED91E019
:104820000E94CD1EBCCECF3F09F0FCCE0E946C2270
:1048300082E0C6CECF91089508950C941C240E9466
:104840001D240C941C2408950C942324CF93DF93EF
:10485000FC01C081C1508BE0C89FC02D1124DBE05A
:10486000DC0FD63308F0D5E36D2F8C2F0E94242463
:104870006D2F8C2FDF91CF910C9423244F925F9258
:104880006F927F928F929F92AF92BF92CF92DF9260
:10489000EF92FF92CF9360912D0370912E03809140
:1048A0002F03909130030E94942A6B017C010E9497
:1048B000792A4B015C0160932D0370932E03809342
:1048C0002F0390933003A0910403E4E0F3E08A2FD8
:1048D00090E04FEF5FEF60E070E04C195D096E090A
:1048E0007F09A91799F0218D328D2901612C712C36
:1048F000441555056605770510F4815004C02C0D4C
:104900003D1D328F218F9F5F3296EBCF8093040342
:1049100080913203811108C0C0915D038C2F837098
:1049200019F0C695C69501C0C0E08091DD018130C7
:10493000D9F028F0823081F18330D9F152C0109241
:10494000DE018092630390926403A0926503B092AB
:10495000660389E2E4E0F3E0A7E6B3E001900D929C
:104960008A95E1F781E022C08C2F0E949B22CC2304
:10497000C1F10E941F248EED91E0CF91FF90EF9046
:10498000DF90CF90BF90AF909F908F907F906F906F
:104990005F904F900C942624C093E10180915D03B9
:1049A00083708093E2010E94381B83E08093DD01D5
:1049B00018C08091310381110E94FD1A10923103B9
:1049C0006091630370916403809165039091660325
:1049D0000E94942A603171058105910510F01092B2
:1049E000DD01CF91FF90EF90DF90CF90BF90AF901F
:1049F0009F908F907F906F905F904F900895E0917F
:104A00006B02F0916C02099510926703E0E8F3E005
:104A10008FEF9FEF8193919323E0E039F207D1F775
:104A200010920403EDE1F3E08FEF9FEF81939193F8
:104A300023E0ED32F207D1F70E94D30E811104C0BA
:104A40000E947B0F0E94051B0E94F51A80915D0356
:104A50008C7F11F40C94051B0895CF93C82F8823E5
:104A600091F08091320381110EC00E949B2210921E
:104A7000E10180915D0383708093E2010E94381B05
:104A800083E08093DD01C0933203CF910895EDE57B
:104A9000F3E0208191E0922790831092DD019091C4
:104AA0003103892B80933103089581E00C944725CD
:104AB00090915D039370A1F0811102C0946007C0D2
:104AC000883210F09C6903C0880F880F982B909350
:104AD0005D031092DD0180913103682B60933103F7
:104AE000089561E00C945825682F90915D03969588
:104AF00096959F5F983210F4892F01C081E00C9445
:104B0000582581E00C947425682F90915D0396954B
:104B10009695915011F0892F01C087E20C94582589
:104B200081E00C94842590915D03937071F08093E3
:104B30005E0360935F03453B08F044EB40936003E2
:104B400080913103282B209331030895ADE5B3E024
:104B50001196EC911197F0E0282F13964C91139732
:104B600012966C91CF0108960C94932581E00C94D9
:104B7000A625ADE5B3E01196EC911197F0E0282F52
:104B800013964C91139712966C91CF0108970C9441
:104B9000932581E00C94B925EDE5F3E0628120E1F5
:104BA000620F08F46FEF9181282F4381892F90E0E5
:104BB0000C94932581E00C94CC25EDE5F3E0628123
:104BC00020E1621B08F460E09181282F4381892F46
:104BD00090E00C94932581E00C94DD25EDE5F3E065
:104BE000438120E1420F08F44FEF9181282F628129
:104BF000892F90E00C94932581E00C94EE25EDE54F
:104C0000F3E0438120E1421B08F440E09181282F2A
:104C10006281892F90E00C94932581E00C94FF250C
:104C20008093610380913103682B60933103089571
:104C30002091610330E1230F08F42FEF682F822FBA
:104C40000C94102681E00C9418262091610330E129
:104C5000231B08F420E0682F822F0C94102681E09B
:104C60000C9425260895FC01EE0FFF1F8E0F9F1F49
:104C7000FC01E057FC4F6183408322830895E0E903
:104C8000F3E094E0EF32F90729F0818360834283F7
:104C90003396F7CF089565E370E080E993E00C94D4
:104CA000F326882311F0FA0101C0FB0109941F9338
:104CB000CF93DF93FB011281112309F48CC0EC0127
:104CC0000E940E0E8272CB3CFCE5DF0709F46EC039
:104CD00048F5C63CECE5DE0709F454C070F4C43C6A
:104CE0009CE5D90709F442C008F045C0C33CDC4547
:104CF00009F074C00E94552570C0C83C9CE5D907D6
:104D000009F44AC008F443C0C93CFCE5DF0709F4D4
:104D100048C0CA3CDC4509F061C04DE056E26CEF8A
:104D200075E22DC0C03DECE5DE0709F450C088F403
:104D3000CD3C9CE5D90709F443C0E8F1CE3CFCE545
:104D4000DF0709F442C0CF3CDC4509F047C085E0ED
:104D50003FC0C73D9CE5D90728F4C23DDC45E8F5D6
:104D600082E136C0CE35DD45C1F138C040E955E2BB
:104D700061E875E204C041E855E260E975E20E942D
:104D800051262BC049EC55E266EB75E2F8CF46EBB5
:104D900055E269EC75E2F3CF4BEE55E26AED75E250
:104DA000EECF4AED55E26BEE75E2E9CF4CEF55E2FE
:104DB0006DE076E2E4CF4FE256E262E276E2DFCFE8
:104DC00042E256E26FE276E2DACF81E001C08DE0A6
:104DD0000E94712502C011E001C010E0812FDF9117
:104DE000CF911F9108956A9A2EB12B7F3EB1346006
:104DF0004FB7F894FC01CB01880F991F680F791FFA
:104E00006E0F7F1FE617F70789F0819198E03EB992
:104E1000000000C087FF2EB9880F000000C000C04E
:104E200000C02EB900C09A9591F7ECCF4FBF8FE527
:104E300094E00197F1F700C0000008950F931F93CD
:104E4000CF93DF93C42FD22FFC0182818823C9F036
:104E5000409335030E946D2A90933403809333036B
:104E600080E28C0F883008F057C0C77081E001C025
:104E7000880FCA95EAF7DF91CF911F910F910C949B
:104E80009D0580913503481330C080913303909184
:104E900034030E94852A883C910538F510E21D0FE5
:104EA000CD17B9F080E28C0F883040F4C77081E0F4
:104EB00001C0880FCA95EAF70E94A405183028F5AA
:104EC00081E09D2F977001C0880F9A95EAF70E94A4
:104ED0009D05802F0E9494051830F0F4D77081E072
:104EE00001C0880FDA95EAF70AC080E28C0F88309B
:104EF00098F4C77081E001C0880FCA95EAF7DF9186
:104F0000CF911F910F910C94A405802FDF91CF9129
:104F10001F910F910C949405DF91CF911F910F91E8
:104F200008950F939C01CB01243F4CE5340731F1E8
:104F300088F4293DFCE53F07D9F02A3D4CE53407CC
:104F400079F1283D3C45A9F506E221EE41EE68EDF8
:104F50007CE52BC0263FFCE53F07E1F0A8F0273FAA
:104F60003C4539F507E225EE46EE67EF7CE51DC0CE
:104F700007E225EE45EE69ED7CE517C006E221EE7D
:104F800040EE64EF7CE511C007E225EE44EE65EFEC
:104F90007CE50BC006E221EE42EE66EF7CE505C043
:104FA00008E221E045EE6AED7CE50E941E2780E0E4
:104FB00008C0FC018281882319F01092350301C0DA
:104FC00081E00F910895CF93DF93EC01FB01828183
:104FD000882309F41FC1C230FCE5DF0708F41BC1B8
:104FE000C6319CE5D90738F09E012B5F3C4529303E
:104FF000310508F010C10E94E60E90934C03809397
:105000004B03C031ECE5DE0709F4C3C008F041C032
:10501000C8308CE5D80709F49AC0F0F4C430ECE548
:10502000DE0709F487C068F4C2308CE5D80709F4BC
:1050300077C0C330DC4509F0E3C080914B03826048
:1050400076C0C630ECE5DE0709F46EC008F07BC020
:1050500080914B0388606BC0CC308CE5D80709F495
:1050600085C068F4CA30ECE5DE0709F474C008F0C6
:1050700079C00E942A0880914B03806858C0CE30C6
:105080008CE5D80709F476C008F07FC080914B0307
:105090008BC0CC3FECE5DE0709F44FC018F5C331F7
:1050A0008CE5D80709F47DC078F4C131ECE5DE0762
:1050B00009F473C0C231DC4509F0A2C00E942A087D
:1050C00080914B038F7733C0C5318CE5D80709F445
:1050D00072C008F486C0CB3FDC4509F091C08091D6
:1050E0004C033EC0C115FDE5DF0709F45FC058F46D
:1050F000CE3F9CE5D90709F444C008F43FC0809135
:105100004C0382602DC0C230FDE5DF0709F475C095
:1051100008F45DC0C330DD4509F072C080E06EC0A8
:1051200080914B03816003C080914B038061809329
:105130004B0366C080914B0311C080914C03826089
:1051400080934C035DC080914B038062F0CF8091CF
:105150004B038064ECCF80914B0388608460E7CF81
:105160008160EECF80914B038E7FE1CF80914B0326
:105170008D7FDDCF80914B03877FD9CF80914C030A
:1051800018C080914C038D7FDBCF80914B038F7EC5
:10519000CECF80914B038F7DCACF80914B038F7B05
:1051A000C6CF80914B03877F8B7FC1CF80914C030B
:1051B0008D7F8E7FC5CF80914B0382FB222720F904
:1051C00091E0922790FB82F990FB83F9B0CF809118
:1051D0004C03982F909591708E7F892B90FB81F9CD
:1051E000AFCF0E942A0880914B0387FB222720F92A
:1051F00091E0922790FB87F99ACF81E00E947D0F82
:1052000080914B0390914C030E94F70E0E942A0854
:1052100080E001C081E0DF91CF910895CF93DF93CB
:1052200086319C4541F5EB010E940E0E982F8A8134
:105230002091D3013091D401882379F09A7A81E0CA
:1052400009F480E080933603911102C069E201C045
:1052500065E3C9010E94D7290AC0809136038111F4
:1052600002C069E201C065E3C9010E94D9290E9418
:10527000600E80E001C081E0DF91CF9108959093AE
:105280003C0380933B030895E0913B03F0913C0382
:10529000309721F00190F081E02D099480E008958D
:1052A000E0913B03F0913C03309721F00280F381C1
:1052B000E02D09940895E0913B03F0913C03309771
:1052C00039F022E0DC012C930480F581E02D099473
:1052D00008952091390330913A032817390771F066
:1052E00090933A0380933903E0913B03F0913C03A0
:1052F000309721F00680F781E02D099408952091E0
:105300003703309138032817390771F09093380329
:1053100080933703E0913B03F0913C03309721F0F9
:105320000084F185E02D09940895FC01329697E000
:1053300080E0915029F021912223D9F38F5FF9CF9A
:105340000895662349F0FC01329608962191621770
:1053500029F0E817F907D1F780E0089581E0089572
:105360009C01FC0132969FEF80E04191461789F045
:105370009F3F19F4411101C0982F8F5F8630A9F724
:105380009F3F39F0F901E90FF11D97FDFA9562830E
:10539000089508959C012A5F3F4FFC014281461306
:1053A00001C01282019682179307B9F708950C94F1
:1053B000B0290C94CA29029626E0FC0111922A9584
:1053C000E9F70895089508950C94E3290C94E329CE
:1053D000CF930E94E6290E94C3130E94E429C0E0F3
:1053E0008C2F0E94D712892B29F4CF5FC430C1F7CC
:1053F00080E001C081E0CF9108950C94E329809171
:105400003704843061F10E943B0380E00E94120463
:1054100081E00E942D2510923D0320E488E190E078
:105420000FB6F894A895809360000FBE209360009B
:1054300083B7817F846083BF83B7816083BF7894A3
:10544000889583B78E7F83BF0FB6F894A895809117
:105450006000886180936000109260000FBE089524
:105460000E942A080E9444290E94120480E00E949F
:105470002D250C9440031F920F920FB60F9211240A
:105480008F939F93AF93BF9380913D03811113C07E
:1054900080912F0490913004A0913104B091320496
:1054A0004196A11DB11D80932F0490933004A093C9
:1054B0003104B0933204BF91AF919F918F910F90BF
:1054C0000FBE0F901F90189582E084BD93E095BDAC
:1054D0009AEF97BD80936E0008952FB7F89480914E
:1054E0002F0490913004A0913104B09132042FBF69
:1054F00008952FB7F89460912F0470913004809133
:105500003104909132042FBF08959C014FB7F89455
:1055100080912F0490913004A0913104B091320415
:105520004FBF821B930B0895CF92DF92EF92FF92B1
:105530002FB7F894C0902F04D0903004E09031043D
:10554000F09032042FBFA7019601261B370B480BA2
:10555000590BCA01B901FF90EF90DF90CF900895E9
:1055600078941F920F920FB60F9211248F939F93EE
:10557000AF93BF9380912F0490913004A091310498
:10558000B09132040196A11DB11D80932F04909318
:105590003004A0933104B0933204BF91AF919F9136
:1055A0008F910F900FBE0F901F90189581E0809300
:1055B000E00080E28093D8001092C9008FE19EE461
:1055C0000197F1F700C0000087E090EBDC018093C9
:1055D000400490934104A0934204B09343049CE0A0
:1055E00088E10FB6F894A895809360000FBE909361
:1055F0006000FFCF909375028093740208958091AC
:105600004903089590913704943031F580933E0317
:105610007093400360933F0382E08093E9008FEF33
:105620009091E800815095FD06C095ED9A95F1F7AF
:1056300000008111F5CF8091E80085FF0DC040E0AA
:1056400050E063E070E08EE393E00E94122D8091C1
:10565000E8008E778093E8000895BC0184E00C9404
:10566000022BBC0183E00C94022B22E02093E90082
:105670002FEF3091E800215035FD06C035ED3A9509
:10568000F1F700002111F5CF2091E80025FF0BC0B4
:1056900040E050E066E070E00E94122D8091E8004A
:1056A0008E778093E8000895CF93DF9321E02093D5
:1056B000E9002FEF3091E800215035FD06C035EDAF
:1056C0003A95F1F700002111F5CF2091E80025FF70
:1056D00014C0EC0140E050E068E070E00E94122D40
:1056E0008091E8008E778093E80088E0FE01A1E4D5
:1056F000B3E001900D928A95E1F7DF91CF91089583
:1057000080913604811109C00E94A32E0E94002FAF
:105710008091E20084608093E20008951092360444
:10572000089508950895089542E061EC81E00E9493
:105730001C2E42E261EC82E00C941C2E8091390414
:10574000833009F460C030F4813071F0823009F4A4
:1057500099C008958A3009F485C08B3009F46BC074
:10576000893009F0A7C020C080913804813A09F03F
:10577000A1C08091E800877F8093E80080913C047D
:1057800090913D04892B21F468E081E493E003C00B
:1057900060E080E090E070E00E945D2D8091E80084
:1057A0008B778093E800089580913804813209F066
:1057B00081C080913C0490913D04029708F07AC02A
:1057C0008091E800877F8093E8008091E80082FD67
:1057D00005C0809137048111F8CF6CC02091F3008F
:1057E0008091F20090E0922B029729F48091F100D1
:1057F0008B7F813021F48091F10080934903809167
:10580000E8008B7753C080913804813A09F052C088
:1058100080913C0490913D04892B09F04BC080910C
:10582000E800877F8093E8008091E80080FFFCCF4C
:105830008091ED0136C0809138048132D9F5809194
:105840003C0490913D04892BA9F58091E800877F65
:105850008093E8000E94512E80913A048093ED01DC
:105860000C942A0880913804813221F58091E80057
:10587000877F8093E8000E94512E80913B048093A3
:105880004A03089580913804813AA1F48091E80098
:10589000877F8093E8008091E80080FFFCCF8091B3
:1058A0004A038093F1008091E8008E778093E800AE
:1058B0000C94512E089584B7877F84BF0FB6F89457
:1058C000A8958091600088618093600010926000CC
:1058D0000FBE90E080E80FB6F8948093610090933B
:1058E00061000FBE0C94AD0F0E94A32E0E94002FEA
:1058F000E2EEF0E080818460808378940E949531AC
:105900000E94BB0F83EE91E00C943F2980913704F5
:105910008530A9F480913704853079F40E94FF29FD
:10592000809135048823B1F30E94E829882391F3FC
:105930000E94FC2C0E942A08EDCF0E94302A0C9471
:10594000C10F0C94A32C292F332723303105C9F024
:1059500060F42130310581F02230310509F044C076
:105960008BE390E02CED34E043C021323105E1F0CF
:105970002232310549F138C082E190E027E135E07B
:1059800037C099278130910549F028F0029761F5D9
:10599000ECE9F4E005C0E8EDF4E002C0E0ECF4E08E
:1059A000849190E09F0124C06115710541F0613040
:1059B0007105D1F489E090E027E035E019C089E075
:1059C00090E02EEE34E014C06115710541F06130B5
:1059D000710551F48BE790E029E235E009C080E4DD
:1059E00090E024EA35E004C080E090E020E030E080
:1059F000FA0131832083089580E189BD82E189BD68
:105A000009B400FEFDCF8091D8008F7D8093D8002F
:105A10008091E00082608093E0008091E00081FD51
:105A2000FCCF0895CF92DF92EF92FF920F931F93D6
:105A3000CF93DF93EC018B017A010E94702E8111CC
:105A400033C0E114F10439F0F70180819181081B22
:105A5000190BC80FD91FC12CD12C0115110519F133
:105A60008091E80085FD16C08091E8008E778093D4
:105A7000E800E114F10449F0F70180819181C80E3A
:105A8000D91ED182C08285E00FC00E94702E88236B
:105A900021F30AC089918093F10001501109FFEFB1
:105AA000CF1ADF0ADACF80E0DF91CF911F910F91FB
:105AB000FF90EF90DF90CF90089520913E043091B9
:105AC0003F042617370748F06115710539F4209116
:105AD000E8002E772093E80001C0B901FC0120E026
